{
  "contractName": "SolnSquareVerifier",
  "abi": [
    {
      "inputs": [
        {
          "internalType": "address",
          "name": "owner",
          "type": "address"
        }
      ],
      "payable": false,
      "stateMutability": "nonpayable",
      "type": "constructor"
    },
    {
      "anonymous": false,
      "inputs": [
        {
          "indexed": true,
          "internalType": "address",
          "name": "owner",
          "type": "address"
        },
        {
          "indexed": true,
          "internalType": "address",
          "name": "approved",
          "type": "address"
        },
        {
          "indexed": true,
          "internalType": "uint256",
          "name": "tokenId",
          "type": "uint256"
        }
      ],
      "name": "Approval",
      "type": "event"
    },
    {
      "anonymous": false,
      "inputs": [
        {
          "indexed": true,
          "internalType": "address",
          "name": "owner",
          "type": "address"
        },
        {
          "indexed": true,
          "internalType": "address",
          "name": "operator",
          "type": "address"
        },
        {
          "indexed": false,
          "internalType": "bool",
          "name": "approved",
          "type": "bool"
        }
      ],
      "name": "ApprovalForAll",
      "type": "event"
    },
    {
      "anonymous": false,
      "inputs": [
        {
          "indexed": false,
          "internalType": "address",
          "name": "trigger_address",
          "type": "address"
        }
      ],
      "name": "Paused",
      "type": "event"
    },
    {
      "anonymous": false,
      "inputs": [
        {
          "indexed": false,
          "internalType": "uint256",
          "name": "index",
          "type": "uint256"
        },
        {
          "indexed": false,
          "internalType": "address",
          "name": "account",
          "type": "address"
        }
      ],
      "name": "SolutionAdded",
      "type": "event"
    },
    {
      "anonymous": false,
      "inputs": [
        {
          "indexed": true,
          "internalType": "address",
          "name": "from",
          "type": "address"
        },
        {
          "indexed": true,
          "internalType": "address",
          "name": "to",
          "type": "address"
        },
        {
          "indexed": true,
          "internalType": "uint256",
          "name": "tokenId",
          "type": "uint256"
        }
      ],
      "name": "Transfer",
      "type": "event"
    },
    {
      "anonymous": false,
      "inputs": [
        {
          "indexed": true,
          "internalType": "address",
          "name": "oldOwner",
          "type": "address"
        },
        {
          "indexed": true,
          "internalType": "address",
          "name": "newOwner",
          "type": "address"
        }
      ],
      "name": "TransferOwnership",
      "type": "event"
    },
    {
      "anonymous": false,
      "inputs": [
        {
          "indexed": false,
          "internalType": "address",
          "name": "trigger_address",
          "type": "address"
        }
      ],
      "name": "Unpaused",
      "type": "event"
    },
    {
      "constant": false,
      "inputs": [
        {
          "internalType": "bytes32",
          "name": "_myid",
          "type": "bytes32"
        },
        {
          "internalType": "string",
          "name": "_result",
          "type": "string"
        }
      ],
      "name": "__callback",
      "outputs": [],
      "payable": false,
      "stateMutability": "nonpayable",
      "type": "function"
    },
    {
      "constant": false,
      "inputs": [
        {
          "internalType": "bytes32",
          "name": "_myid",
          "type": "bytes32"
        },
        {
          "internalType": "string",
          "name": "_result",
          "type": "string"
        },
        {
          "internalType": "bytes",
          "name": "_proof",
          "type": "bytes"
        }
      ],
      "name": "__callback",
      "outputs": [],
      "payable": false,
      "stateMutability": "nonpayable",
      "type": "function"
    },
    {
      "constant": false,
      "inputs": [
        {
          "internalType": "address",
          "name": "to",
          "type": "address"
        },
        {
          "internalType": "uint256",
          "name": "tokenId",
          "type": "uint256"
        }
      ],
      "name": "approve",
      "outputs": [],
      "payable": false,
      "stateMutability": "nonpayable",
      "type": "function"
    },
    {
      "constant": true,
      "inputs": [
        {
          "internalType": "address",
          "name": "owner",
          "type": "address"
        }
      ],
      "name": "balanceOf",
      "outputs": [
        {
          "internalType": "uint256",
          "name": "",
          "type": "uint256"
        }
      ],
      "payable": false,
      "stateMutability": "view",
      "type": "function"
    },
    {
      "constant": true,
      "inputs": [
        {
          "internalType": "uint256",
          "name": "tokenId",
          "type": "uint256"
        }
      ],
      "name": "getApproved",
      "outputs": [
        {
          "internalType": "address",
          "name": "",
          "type": "address"
        }
      ],
      "payable": false,
      "stateMutability": "view",
      "type": "function"
    },
    {
      "constant": true,
      "inputs": [],
      "name": "getBaseTokenURI",
      "outputs": [
        {
          "internalType": "string",
          "name": "",
          "type": "string"
        }
      ],
      "payable": false,
      "stateMutability": "view",
      "type": "function"
    },
    {
      "constant": true,
      "inputs": [],
      "name": "getName",
      "outputs": [
        {
          "internalType": "string",
          "name": "",
          "type": "string"
        }
      ],
      "payable": false,
      "stateMutability": "view",
      "type": "function"
    },
    {
      "constant": true,
      "inputs": [],
      "name": "getOwner",
      "outputs": [
        {
          "internalType": "address",
          "name": "",
          "type": "address"
        }
      ],
      "payable": false,
      "stateMutability": "view",
      "type": "function"
    },
    {
      "constant": true,
      "inputs": [],
      "name": "getSymbol",
      "outputs": [
        {
          "internalType": "string",
          "name": "",
          "type": "string"
        }
      ],
      "payable": false,
      "stateMutability": "view",
      "type": "function"
    },
    {
      "constant": true,
      "inputs": [
        {
          "internalType": "address",
          "name": "owner",
          "type": "address"
        },
        {
          "internalType": "address",
          "name": "operator",
          "type": "address"
        }
      ],
      "name": "isApprovedForAll",
      "outputs": [
        {
          "internalType": "bool",
          "name": "",
          "type": "bool"
        }
      ],
      "payable": false,
      "stateMutability": "view",
      "type": "function"
    },
    {
      "constant": true,
      "inputs": [],
      "name": "isOwner",
      "outputs": [
        {
          "internalType": "bool",
          "name": "",
          "type": "bool"
        }
      ],
      "payable": false,
      "stateMutability": "view",
      "type": "function"
    },
    {
      "constant": false,
      "inputs": [
        {
          "internalType": "address",
          "name": "to",
          "type": "address"
        },
        {
          "internalType": "uint256",
          "name": "tokenId",
          "type": "uint256"
        },
        {
          "internalType": "string",
          "name": "tokenURI",
          "type": "string"
        }
      ],
      "name": "mint",
      "outputs": [
        {
          "internalType": "bool",
          "name": "",
          "type": "bool"
        }
      ],
      "payable": false,
      "stateMutability": "nonpayable",
      "type": "function"
    },
    {
      "constant": true,
      "inputs": [
        {
          "internalType": "uint256",
          "name": "tokenId",
          "type": "uint256"
        }
      ],
      "name": "ownerOf",
      "outputs": [
        {
          "internalType": "address",
          "name": "",
          "type": "address"
        }
      ],
      "payable": false,
      "stateMutability": "view",
      "type": "function"
    },
    {
      "constant": false,
      "inputs": [],
      "name": "pause",
      "outputs": [],
      "payable": false,
      "stateMutability": "nonpayable",
      "type": "function"
    },
    {
      "constant": false,
      "inputs": [
        {
          "internalType": "address",
          "name": "from",
          "type": "address"
        },
        {
          "internalType": "address",
          "name": "to",
          "type": "address"
        },
        {
          "internalType": "uint256",
          "name": "tokenId",
          "type": "uint256"
        }
      ],
      "name": "safeTransferFrom",
      "outputs": [],
      "payable": false,
      "stateMutability": "nonpayable",
      "type": "function"
    },
    {
      "constant": false,
      "inputs": [
        {
          "internalType": "address",
          "name": "from",
          "type": "address"
        },
        {
          "internalType": "address",
          "name": "to",
          "type": "address"
        },
        {
          "internalType": "uint256",
          "name": "tokenId",
          "type": "uint256"
        },
        {
          "internalType": "bytes",
          "name": "_data",
          "type": "bytes"
        }
      ],
      "name": "safeTransferFrom",
      "outputs": [],
      "payable": false,
      "stateMutability": "nonpayable",
      "type": "function"
    },
    {
      "constant": false,
      "inputs": [
        {
          "internalType": "address",
          "name": "to",
          "type": "address"
        },
        {
          "internalType": "bool",
          "name": "approved",
          "type": "bool"
        }
      ],
      "name": "setApprovalForAll",
      "outputs": [],
      "payable": false,
      "stateMutability": "nonpayable",
      "type": "function"
    },
    {
      "constant": true,
      "inputs": [
        {
          "internalType": "bytes4",
          "name": "interfaceId",
          "type": "bytes4"
        }
      ],
      "name": "supportsInterface",
      "outputs": [
        {
          "internalType": "bool",
          "name": "",
          "type": "bool"
        }
      ],
      "payable": false,
      "stateMutability": "view",
      "type": "function"
    },
    {
      "constant": true,
      "inputs": [
        {
          "internalType": "uint256",
          "name": "index",
          "type": "uint256"
        }
      ],
      "name": "tokenByIndex",
      "outputs": [
        {
          "internalType": "uint256",
          "name": "",
          "type": "uint256"
        }
      ],
      "payable": false,
      "stateMutability": "view",
      "type": "function"
    },
    {
      "constant": true,
      "inputs": [
        {
          "internalType": "address",
          "name": "owner",
          "type": "address"
        },
        {
          "internalType": "uint256",
          "name": "index",
          "type": "uint256"
        }
      ],
      "name": "tokenOfOwnerByIndex",
      "outputs": [
        {
          "internalType": "uint256",
          "name": "",
          "type": "uint256"
        }
      ],
      "payable": false,
      "stateMutability": "view",
      "type": "function"
    },
    {
      "constant": true,
      "inputs": [
        {
          "internalType": "uint256",
          "name": "tokenId",
          "type": "uint256"
        }
      ],
      "name": "tokenURI",
      "outputs": [
        {
          "internalType": "string",
          "name": "",
          "type": "string"
        }
      ],
      "payable": false,
      "stateMutability": "view",
      "type": "function"
    },
    {
      "constant": true,
      "inputs": [],
      "name": "totalSupply",
      "outputs": [
        {
          "internalType": "uint256",
          "name": "",
          "type": "uint256"
        }
      ],
      "payable": false,
      "stateMutability": "view",
      "type": "function"
    },
    {
      "constant": false,
      "inputs": [
        {
          "internalType": "address",
          "name": "from",
          "type": "address"
        },
        {
          "internalType": "address",
          "name": "to",
          "type": "address"
        },
        {
          "internalType": "uint256",
          "name": "tokenId",
          "type": "uint256"
        }
      ],
      "name": "transferFrom",
      "outputs": [],
      "payable": false,
      "stateMutability": "nonpayable",
      "type": "function"
    },
    {
      "constant": false,
      "inputs": [
        {
          "internalType": "address",
          "name": "newOwner",
          "type": "address"
        }
      ],
      "name": "transferOwnership",
      "outputs": [],
      "payable": false,
      "stateMutability": "nonpayable",
      "type": "function"
    },
    {
      "constant": false,
      "inputs": [],
      "name": "unpause",
      "outputs": [],
      "payable": false,
      "stateMutability": "nonpayable",
      "type": "function"
    },
    {
      "constant": false,
      "inputs": [
        {
          "internalType": "bytes32",
          "name": "key",
          "type": "bytes32"
        },
        {
          "internalType": "address",
          "name": "solution_account",
          "type": "address"
        },
        {
          "internalType": "uint256",
          "name": "solution_index",
          "type": "uint256"
        }
      ],
      "name": "addSolution",
      "outputs": [],
      "payable": false,
      "stateMutability": "nonpayable",
      "type": "function"
    },
    {
      "constant": false,
      "inputs": [],
      "name": "getNumSolutions",
      "outputs": [
        {
          "internalType": "uint256",
          "name": "",
          "type": "uint256"
        }
      ],
      "payable": false,
      "stateMutability": "nonpayable",
      "type": "function"
    },
    {
      "constant": false,
      "inputs": [
        {
          "internalType": "address",
          "name": "account",
          "type": "address"
        },
        {
          "internalType": "uint256",
          "name": "index",
          "type": "uint256"
        },
        {
          "components": [
            {
              "components": [
                {
                  "internalType": "uint256",
                  "name": "X",
                  "type": "uint256"
                },
                {
                  "internalType": "uint256",
                  "name": "Y",
                  "type": "uint256"
                }
              ],
              "internalType": "struct Pairing.G1Point",
              "name": "a",
              "type": "tuple"
            },
            {
              "components": [
                {
                  "internalType": "uint256[2]",
                  "name": "X",
                  "type": "uint256[2]"
                },
                {
                  "internalType": "uint256[2]",
                  "name": "Y",
                  "type": "uint256[2]"
                }
              ],
              "internalType": "struct Pairing.G2Point",
              "name": "b",
              "type": "tuple"
            },
            {
              "components": [
                {
                  "internalType": "uint256",
                  "name": "X",
                  "type": "uint256"
                },
                {
                  "internalType": "uint256",
                  "name": "Y",
                  "type": "uint256"
                }
              ],
              "internalType": "struct Pairing.G1Point",
              "name": "c",
              "type": "tuple"
            }
          ],
          "internalType": "struct SquareVerifier.Proof",
          "name": "proof",
          "type": "tuple"
        },
        {
          "internalType": "uint256[2]",
          "name": "input",
          "type": "uint256[2]"
        }
      ],
      "name": "mintToken",
      "outputs": [
        {
          "internalType": "bool",
          "name": "",
          "type": "bool"
        }
      ],
      "payable": false,
      "stateMutability": "nonpayable",
      "type": "function"
    },
    {
      "constant": false,
      "inputs": [
        {
          "internalType": "address",
          "name": "account",
          "type": "address"
        },
        {
          "internalType": "uint256",
          "name": "index",
          "type": "uint256"
        },
        {
          "components": [
            {
              "components": [
                {
                  "internalType": "uint256",
                  "name": "X",
                  "type": "uint256"
                },
                {
                  "internalType": "uint256",
                  "name": "Y",
                  "type": "uint256"
                }
              ],
              "internalType": "struct Pairing.G1Point",
              "name": "a",
              "type": "tuple"
            },
            {
              "components": [
                {
                  "internalType": "uint256[2]",
                  "name": "X",
                  "type": "uint256[2]"
                },
                {
                  "internalType": "uint256[2]",
                  "name": "Y",
                  "type": "uint256[2]"
                }
              ],
              "internalType": "struct Pairing.G2Point",
              "name": "b",
              "type": "tuple"
            },
            {
              "components": [
                {
                  "internalType": "uint256",
                  "name": "X",
                  "type": "uint256"
                },
                {
                  "internalType": "uint256",
                  "name": "Y",
                  "type": "uint256"
                }
              ],
              "internalType": "struct Pairing.G1Point",
              "name": "c",
              "type": "tuple"
            }
          ],
          "internalType": "struct SquareVerifier.Proof",
          "name": "proof",
          "type": "tuple"
        },
        {
          "internalType": "uint256[2]",
          "name": "input",
          "type": "uint256[2]"
        }
      ],
      "name": "getKey",
      "outputs": [
        {
          "internalType": "bytes32",
          "name": "",
          "type": "bytes32"
        }
      ],
      "payable": false,
      "stateMutability": "nonpayable",
      "type": "function"
    }
  ],
  "bytecode": "0x608060405260006014553480156200001657600080fd5b50604051620040963803806200409683398181016040526200003c9190810190620003da565b6040518060400160405280600e81526020017f53746f6e6543617020546f6b656e0000000000000000000000000000000000008152506040518060400160405280600481526020017f53434150000000000000000000000000000000000000000000000000000000008152506040518060600160405280603f815260200162004057603f9139336000806101000a81548173ffffffffffffffffffffffffffffffffffffffff021916908373ffffffffffffffffffffffffffffffffffffffff1602179055506000809054906101000a900473ffffffffffffffffffffffffffffffffffffffff1673ffffffffffffffffffffffffffffffffffffffff16600073ffffffffffffffffffffffffffffffffffffffff167f5c486528ec3e3f0ea91181cff8116f02bfa350e03b8b6f12e00765adbb5af85c60405160405180910390a3620001966301ffc9a760e01b6200027460201b60201c565b620001ae6380ac58cd60e01b6200027460201b60201c565b620001c663780e9d6360e01b6200027460201b60201c565b82600f9080519060200190620001de92919062000314565b508160109080519060200190620001f792919062000314565b5080601190805190602001906200021092919062000314565b5062000229635b5e139f60e01b6200027460201b60201c565b50505080601360006101000a81548173ffffffffffffffffffffffffffffffffffffffff021916908373ffffffffffffffffffffffffffffffffffffffff1602179055505062000454565b63ffffffff60e01b817bffffffffffffffffffffffffffffffffffffffffffffffffffffffff19161415620002a857600080fd5b6001806000837bffffffffffffffffffffffffffffffffffffffffffffffffffffffff19167bffffffffffffffffffffffffffffffffffffffffffffffffffffffff1916815260200190815260200160002060006101000a81548160ff02191690831515021790555050565b828054600181600116156101000203166002900490600052602060002090601f016020900481019282601f106200035757805160ff191683800117855562000388565b8280016001018555821562000388579182015b82811115620003875782518255916020019190600101906200036a565b5b5090506200039791906200039b565b5090565b620003c091905b80821115620003bc576000816000905550600101620003a2565b5090565b90565b600081519050620003d4816200043a565b92915050565b600060208284031215620003ed57600080fd5b6000620003fd84828501620003c3565b91505092915050565b600062000413826200041a565b9050919050565b600073ffffffffffffffffffffffffffffffffffffffff82169050919050565b620004458162000406565b81146200045157600080fd5b50565b613bf380620004646000396000f3fe608060405234801561001057600080fd5b50600436106101cf5760003560e01c80636352211e11610104578063bdc32be0116100a2578063dca5d45b11610071578063dca5d45b1461052e578063e985e9c51461054a578063f2aa06831461057a578063f2fde38b146105aa576101cf565b8063bdc32be014610480578063c87b56dd1461049e578063d3fc9864146104ce578063d907f86f146104fe576101cf565b8063893d20e8116100de578063893d20e81461040c5780638f32d59b1461042a578063a22cb46514610448578063b88d4fde14610464576101cf565b80636352211e146103a257806370a08231146103d25780638456cb5914610402576101cf565b806327dc297e116101715780633b605ec31161014b5780633b605ec31461032e5780633f4ba83a1461034c57806342842e0e146103565780634f6ccce714610372576101cf565b806327dc297e146102c65780632f745c59146102e257806338bbfa5014610312576101cf565b806315070401116101ad578063150704011461025057806317d7de7c1461026e57806318160ddd1461028c57806323b872dd146102aa576101cf565b806301ffc9a7146101d4578063081812fc14610204578063095ea7b314610234575b600080fd5b6101ee60048036036101e99190810190612eaa565b6105c6565b6040516101fb919061369f565b60405180910390f35b61021e60048036036102199190810190612efc565b61062e565b60405161022b919061361d565b60405180910390f35b61024e60048036036102499190810190612c57565b6106fb565b005b6102586108b0565b60405161026591906136d5565b60405180910390f35b610276610952565b60405161028391906136d5565b60405180910390f35b6102946109f4565b6040516102a19190613882565b60405180910390f35b6102c460048036036102bf9190810190612b51565b610a01565b005b6102e060048036036102db9190810190612dd7565b610a24565b005b6102fc60048036036102f79190810190612c57565b610a67565b6040516103099190613882565b60405180910390f35b61032c60048036036103279190810190612e2b565b610ada565b005b610336610adf565b6040516103439190613882565b60405180910390f35b610354610ae9565b005b610370600480360361036b9190810190612b51565b610b66565b005b61038c60048036036103879190810190612efc565b610b86565b6040516103999190613882565b60405180910390f35b6103bc60048036036103b79190810190612efc565b610bba565b6040516103c9919061361d565b60405180910390f35b6103ec60048036036103e79190810190612aec565b610c99565b6040516103f99190613882565b60405180910390f35b61040a610d58565b005b610414610dd7565b604051610421919061361d565b60405180910390f35b610432610e00565b60405161043f919061369f565b60405180910390f35b610462600480360361045d9190810190612c1b565b610e57565b005b61047e60048036036104799190810190612ba0565b610f8d565b005b610488610fb3565b60405161049591906136d5565b60405180910390f35b6104b860048036036104b39190810190612efc565b611055565b6040516104c591906136d5565b60405180910390f35b6104e860048036036104e39190810190612c93565b61111c565b6040516104f5919061369f565b60405180910390f35b61051860048036036105139190810190612cfa565b61114d565b60405161052591906136ba565b60405180910390f35b61054860048036036105439190810190612d88565b6111c1565b005b610564600480360361055f9190810190612b15565b611281565b604051610571919061369f565b60405180910390f35b610594600480360361058f9190810190612cfa565b611315565b6040516105a1919061369f565b60405180910390f35b6105c460048036036105bf9190810190612aec565b61153d565b005b600060016000837bffffffffffffffffffffffffffffffffffffffffffffffffffffffff19167bffffffffffffffffffffffffffffffffffffffffffffffffffffffff1916815260200190815260200160002060009054906101000a900460ff169050919050565b60006106398261155a565b610678576040517f08c379a000000000000000000000000000000000000000000000000000000000815260040161066f906137d7565b60405180910390fd5b610681826115cc565b6106c0576040517f08c379a00000000000000000000000000000000000000000000000000000000081526004016106b790613837565b60405180910390fd5b6003600083815260200190815260200160002060009054906101000a900473ffffffffffffffffffffffffffffffffffffffff169050919050565b600061070682610bba565b90508073ffffffffffffffffffffffffffffffffffffffff168373ffffffffffffffffffffffffffffffffffffffff161415610777576040517f08c379a000000000000000000000000000000000000000000000000000000000815260040161076e90613777565b60405180910390fd5b8073ffffffffffffffffffffffffffffffffffffffff163373ffffffffffffffffffffffffffffffffffffffff1614806107bf57506107be6107b883610bba565b33611281565b5b6107fe576040517f08c379a00000000000000000000000000000000000000000000000000000000081526004016107f5906137f7565b60405180910390fd5b826003600084815260200190815260200160002060006101000a81548173ffffffffffffffffffffffffffffffffffffffff021916908373ffffffffffffffffffffffffffffffffffffffff160217905550818373ffffffffffffffffffffffffffffffffffffffff168273ffffffffffffffffffffffffffffffffffffffff167f8c5be1e5ebec7d5bd14f71427d1e84f3dd0314c0f7b2291e5b200ac8c7c3b92560405160405180910390a4505050565b606060108054600181600116156101000203166002900480601f0160208091040260200160405190810160405280929190818152602001828054600181600116156101000203166002900480156109485780601f1061091d57610100808354040283529160200191610948565b820191906000526020600020905b81548152906001019060200180831161092b57829003601f168201915b5050505050905090565b6060600f8054600181600116156101000203166002900480601f0160208091040260200160405190810160405280929190818152602001828054600181600116156101000203166002900480156109ea5780601f106109bf576101008083540402835291602001916109ea565b820191906000526020600020905b8154815290600101906020018083116109cd57829003601f168201915b5050505050905090565b6000600880549050905090565b610a0b338261163e565b610a1457600080fd5b610a1f8383836116d3565b505050565b610a63828260006040519080825280601f01601f191660200182016040528015610a5d5781602001600182028038833980820191505090505b50610ada565b5050565b6000610a7283610c99565b8210610a7d57600080fd5b600660008473ffffffffffffffffffffffffffffffffffffffff1673ffffffffffffffffffffffffffffffffffffffff1681526020019081526020016000208281548110610ac757fe5b9060005260206000200154905092915050565b505050565b6000601454905090565b610af1610e00565b610afa57600080fd5b600060149054906101000a900460ff16610b1357600080fd5b60008060146101000a81548160ff0219169083151502179055507f5db9ee0a495bf2e6ff9c91a7834c1ba4fdd244a5e8aa4e537bd38aeae4b073aa33604051610b5c9190613638565b60405180910390a1565b610b8183838360405180602001604052806000815250610f8d565b505050565b6000610b906109f4565b8210610b9b57600080fd5b60088281548110610ba857fe5b90600052602060002001549050919050565b60008073ffffffffffffffffffffffffffffffffffffffff166002600084815260200190815260200160002060009054906101000a900473ffffffffffffffffffffffffffffffffffffffff1673ffffffffffffffffffffffffffffffffffffffff161415610c5e576040517f08c379a0000000000000000000000000000000000000000000000000000000008152600401610c5590613717565b60405180910390fd5b6002600083815260200190815260200160002060009054906101000a900473ffffffffffffffffffffffffffffffffffffffff169050919050565b60008073ffffffffffffffffffffffffffffffffffffffff168273ffffffffffffffffffffffffffffffffffffffff161415610d0a576040517f08c379a0000000000000000000000000000000000000000000000000000000008152600401610d0190613717565b60405180910390fd5b610d51600460008473ffffffffffffffffffffffffffffffffffffffff1673ffffffffffffffffffffffffffffffffffffffff1681526020019081526020016000206116f7565b9050919050565b610d60610e00565b610d6957600080fd5b600060149054906101000a900460ff1615610d8357600080fd5b6001600060146101000a81548160ff0219169083151502179055507f62e78cea01bee320cd4e420270b5ea74000d11b0c9f74754ebdbfc544b05a25833604051610dcd9190613638565b60405180910390a1565b60008060009054906101000a900473ffffffffffffffffffffffffffffffffffffffff16905090565b60008060009054906101000a900473ffffffffffffffffffffffffffffffffffffffff1673ffffffffffffffffffffffffffffffffffffffff163373ffffffffffffffffffffffffffffffffffffffff1614905090565b3373ffffffffffffffffffffffffffffffffffffffff168273ffffffffffffffffffffffffffffffffffffffff161415610e9057600080fd5b80600560003373ffffffffffffffffffffffffffffffffffffffff1673ffffffffffffffffffffffffffffffffffffffff16815260200190815260200160002060008473ffffffffffffffffffffffffffffffffffffffff1673ffffffffffffffffffffffffffffffffffffffff16815260200190815260200160002060006101000a81548160ff0219169083151502179055508173ffffffffffffffffffffffffffffffffffffffff163373ffffffffffffffffffffffffffffffffffffffff167f17307eab39ab6107e8899845ad3d59bd9653f200f220920489ca2b5937696c3183604051610f81919061369f565b60405180910390a35050565b610f98848484610a01565b610fa484848484611705565b610fad57600080fd5b50505050565b606060118054600181600116156101000203166002900480601f01602080910402602001604051908101604052809291908181526020018280546001816001161561010002031660029004801561104b5780601f106110205761010080835404028352916020019161104b565b820191906000526020600020905b81548152906001019060200180831161102e57829003601f168201915b5050505050905090565b60606110608261155a565b61106957600080fd5b601260008381526020019081526020016000208054600181600116156101000203166002900480601f0160208091040260200160405190810160405280929190818152602001828054600181600116156101000203166002900480156111105780601f106110e557610100808354040283529160200191611110565b820191906000526020600020905b8154815290600101906020018083116110f357829003601f168201915b50505050509050919050565b6000611126610e00565b61112f57600080fd5b611139848461181c565b6111428361183d565b600190509392505050565b6000808360000151600001518460000151602001518560200151600001518660200151602001518760400151600001518860400151602001518860405160200161119d979695949392919061359c565b60405160208183030381529060405280519060200120905080915050949350505050565b806015600085815260200190815260200160002060000181905550816015600085815260200190815260200160002060010160006101000a81548173ffffffffffffffffffffffffffffffffffffffff021916908373ffffffffffffffffffffffffffffffffffffffff1602179055506014600081548092919060010191905055507f078793128cefb19aac38a33f9e5df39f67716907f6d747e8065545699e0b2b8d818360405161127492919061389d565b60405180910390a1505050565b6000600560008473ffffffffffffffffffffffffffffffffffffffff1673ffffffffffffffffffffffffffffffffffffffff16815260200190815260200160002060008373ffffffffffffffffffffffffffffffffffffffff1673ffffffffffffffffffffffffffffffffffffffff16815260200190815260200160002060009054906101000a900460ff16905092915050565b6000601360009054906101000a900473ffffffffffffffffffffffffffffffffffffffff1673ffffffffffffffffffffffffffffffffffffffff166343cd76fc84846040518363ffffffff1660e01b8152600401611374929190613857565b60206040518083038186803b15801561138c57600080fd5b505afa1580156113a0573d6000803e3d6000fd5b505050506040513d601f19601f820116820180604052506113c49190810190612d5f565b611403576040517f08c379a00000000000000000000000000000000000000000000000000000000081526004016113fa90613737565b60405180910390fd5b600083600001516000015184600001516020015185602001516000015186602001516020015187604001516000015188604001516020015188604051602001611452979695949392919061359c565b604051602081830303815290604052805190602001209050600073ffffffffffffffffffffffffffffffffffffffff166015600083815260200190815260200160002060010160009054906101000a900473ffffffffffffffffffffffffffffffffffffffff1673ffffffffffffffffffffffffffffffffffffffff161461150f576040517f08c379a000000000000000000000000000000000000000000000000000000000815260040161150690613817565b60405180910390fd5b61151a8187876111c1565b6060611524610fb3565b905061153187878361111c565b92505050949350505050565b611545610e00565b61154e57600080fd5b6115578161195b565b50565b6000806002600084815260200190815260200160002060009054906101000a900473ffffffffffffffffffffffffffffffffffffffff169050600073ffffffffffffffffffffffffffffffffffffffff168173ffffffffffffffffffffffffffffffffffffffff161415915050919050565b6000806003600084815260200190815260200160002060009054906101000a900473ffffffffffffffffffffffffffffffffffffffff169050600073ffffffffffffffffffffffffffffffffffffffff168173ffffffffffffffffffffffffffffffffffffffff161415915050919050565b60008061164a83610bba565b90508073ffffffffffffffffffffffffffffffffffffffff168473ffffffffffffffffffffffffffffffffffffffff1614806116b957508373ffffffffffffffffffffffffffffffffffffffff166116a18461062e565b73ffffffffffffffffffffffffffffffffffffffff16145b806116ca57506116c98185611281565b5b91505092915050565b6116de838383611a53565b6116e88382611c82565b6116f28282611e20565b505050565b600081600001549050919050565b60006117268473ffffffffffffffffffffffffffffffffffffffff16611ee7565b6117335760019050611814565b60008473ffffffffffffffffffffffffffffffffffffffff1663150b7a02338887876040518563ffffffff1660e01b81526004016117749493929190613653565b602060405180830381600087803b15801561178e57600080fd5b505af11580156117a2573d6000803e3d6000fd5b505050506040513d601f19601f820116820180604052506117c69190810190612ed3565b905063150b7a0260e01b7bffffffffffffffffffffffffffffffffffffffffffffffffffffffff1916817bffffffffffffffffffffffffffffffffffffffffffffffffffffffff1916149150505b949350505050565b6118268282611f32565b6118308282611e20565b611839816120e4565b5050565b6118468161155a565b611885576040517f08c379a000000000000000000000000000000000000000000000000000000000815260040161187c906137d7565b60405180910390fd5b61193160118054600181600116156101000203166002900480601f01602080910402602001604051908101604052809291908181526020018280546001816001161561010002031660029004801561191e5780601f106118f35761010080835404028352916020019161191e565b820191906000526020600020905b81548152906001019060200180831161190157829003601f168201915b505050505061192c83612130565b61225d565b6012600083815260200190815260200160002090805190602001906119579291906126ff565b5050565b600073ffffffffffffffffffffffffffffffffffffffff168173ffffffffffffffffffffffffffffffffffffffff16141561199557600080fd5b8073ffffffffffffffffffffffffffffffffffffffff166000809054906101000a900473ffffffffffffffffffffffffffffffffffffffff1673ffffffffffffffffffffffffffffffffffffffff167f5c486528ec3e3f0ea91181cff8116f02bfa350e03b8b6f12e00765adbb5af85c60405160405180910390a3806000806101000a81548173ffffffffffffffffffffffffffffffffffffffff021916908373ffffffffffffffffffffffffffffffffffffffff16021790555050565b8273ffffffffffffffffffffffffffffffffffffffff16611a7382610bba565b73ffffffffffffffffffffffffffffffffffffffff1614611ac9576040517f08c379a0000000000000000000000000000000000000000000000000000000008152600401611ac090613797565b60405180910390fd5b600073ffffffffffffffffffffffffffffffffffffffff168273ffffffffffffffffffffffffffffffffffffffff161415611b39576040517f08c379a0000000000000000000000000000000000000000000000000000000008152600401611b30906137b7565b60405180910390fd5b611b42816122a1565b611b89600460008473ffffffffffffffffffffffffffffffffffffffff1673ffffffffffffffffffffffffffffffffffffffff16815260200190815260200160002061235f565b611bd0600460008573ffffffffffffffffffffffffffffffffffffffff1673ffffffffffffffffffffffffffffffffffffffff168152602001908152602001600020612375565b816002600083815260200190815260200160002060006101000a81548173ffffffffffffffffffffffffffffffffffffffff021916908373ffffffffffffffffffffffffffffffffffffffff160217905550808273ffffffffffffffffffffffffffffffffffffffff168473ffffffffffffffffffffffffffffffffffffffff167fddf252ad1be2c89b69c2b068fc378daa952ba7f163c4a11628f55a4df523b3ef60405160405180910390a4505050565b6000611cda6001600660008673ffffffffffffffffffffffffffffffffffffffff1673ffffffffffffffffffffffffffffffffffffffff1681526020019081526020016000208054905061239890919063ffffffff16565b9050600060076000848152602001908152602001600020549050818114611dc7576000600660008673ffffffffffffffffffffffffffffffffffffffff1673ffffffffffffffffffffffffffffffffffffffff1681526020019081526020016000208381548110611d4757fe5b9060005260206000200154905080600660008773ffffffffffffffffffffffffffffffffffffffff1673ffffffffffffffffffffffffffffffffffffffff1681526020019081526020016000208381548110611d9f57fe5b9060005260206000200181905550816007600083815260200190815260200160002081905550505b600660008573ffffffffffffffffffffffffffffffffffffffff1673ffffffffffffffffffffffffffffffffffffffff168152602001908152602001600020805480919060019003611e19919061277f565b5050505050565b600660008373ffffffffffffffffffffffffffffffffffffffff1673ffffffffffffffffffffffffffffffffffffffff168152602001908152602001600020805490506007600083815260200190815260200160002081905550600660008373ffffffffffffffffffffffffffffffffffffffff1673ffffffffffffffffffffffffffffffffffffffff1681526020019081526020016000208190806001815401808255809150509060018203906000526020600020016000909192909190915055505050565b60008060007fc5d2460186f7233c927e7db2dcc703c0e500b653ca82273b7bfad8045d85a47060001b9050833f9150808214158015611f2957506000801b8214155b92505050919050565b611f3b8161155a565b15611f7b576040517f08c379a0000000000000000000000000000000000000000000000000000000008152600401611f7290613757565b60405180910390fd5b600073ffffffffffffffffffffffffffffffffffffffff168273ffffffffffffffffffffffffffffffffffffffff161415611feb576040517f08c379a0000000000000000000000000000000000000000000000000000000008152600401611fe2906136f7565b60405180910390fd5b816002600083815260200190815260200160002060006101000a81548173ffffffffffffffffffffffffffffffffffffffff021916908373ffffffffffffffffffffffffffffffffffffffff160217905550612084600460008473ffffffffffffffffffffffffffffffffffffffff1673ffffffffffffffffffffffffffffffffffffffff16815260200190815260200160002061235f565b808273ffffffffffffffffffffffffffffffffffffffff16600073ffffffffffffffffffffffffffffffffffffffff167fddf252ad1be2c89b69c2b068fc378daa952ba7f163c4a11628f55a4df523b3ef60405160405180910390a45050565b6008805490506009600083815260200190815260200160002081905550600881908060018154018082558091505090600182039060005260206000200160009091929091909150555050565b60606000821415612178576040518060400160405280600181526020017f30000000000000000000000000000000000000000000000000000000000000008152509050612258565b600082905060005b600082146121a2578080600101915050600a828161219a57fe5b049150612180565b6060816040519080825280601f01601f1916602001820160405280156121d75781602001600182028038833980820191505090505b50905060006001830390505b6000861461225057600a86816121f557fe5b0660300160f81b8282806001900393508151811061220f57fe5b60200101907effffffffffffffffffffffffffffffffffffffffffffffffffffffffffffff1916908160001a905350600a868161224857fe5b0495506121e3565b819450505050505b919050565b606061229983836040518060200160405280600081525060405180602001604052806000815250604051806020016040528060008152506123e2565b905092915050565b600073ffffffffffffffffffffffffffffffffffffffff166003600083815260200190815260200160002060009054906101000a900473ffffffffffffffffffffffffffffffffffffffff1673ffffffffffffffffffffffffffffffffffffffff161461235c5760006003600083815260200190815260200160002060006101000a81548173ffffffffffffffffffffffffffffffffffffffff021916908373ffffffffffffffffffffffffffffffffffffffff1602179055505b50565b6001816000016000828254019250508190555050565b61238d6001826000015461239890919063ffffffff16565b816000018190555050565b60006123da83836040518060400160405280601e81526020017f536166654d6174683a207375627472616374696f6e206f766572666c6f7700008152506126a4565b905092915050565b6060808690506060869050606086905060608690506060869050606081518351855187518951010101016040519080825280601f01601f19166020018201604052801561243e5781602001600182028038833980820191505090505b509050606081905060008090506000809050600090505b88518110156124c35788818151811061246a57fe5b602001015160f81c60f81b83838060010194508151811061248757fe5b60200101907effffffffffffffffffffffffffffffffffffffffffffffffffffffffffffff1916908160001a9053508080600101915050612455565b600090505b8751811015612536578781815181106124dd57fe5b602001015160f81c60f81b8383806001019450815181106124fa57fe5b60200101907effffffffffffffffffffffffffffffffffffffffffffffffffffffffffffff1916908160001a90535080806001019150506124c8565b600090505b86518110156125a95786818151811061255057fe5b602001015160f81c60f81b83838060010194508151811061256d57fe5b60200101907effffffffffffffffffffffffffffffffffffffffffffffffffffffffffffff1916908160001a905350808060010191505061253b565b600090505b855181101561261c578581815181106125c357fe5b602001015160f81c60f81b8383806001019450815181106125e057fe5b60200101907effffffffffffffffffffffffffffffffffffffffffffffffffffffffffffff1916908160001a90535080806001019150506125ae565b600090505b845181101561268f5784818151811061263657fe5b602001015160f81c60f81b83838060010194508151811061265357fe5b60200101907effffffffffffffffffffffffffffffffffffffffffffffffffffffffffffff1916908160001a9053508080600101915050612621565b82995050505050505050505095945050505050565b60008383111582906126ec576040517f08c379a00000000000000000000000000000000000000000000000000000000081526004016126e391906136d5565b60405180910390fd5b5060008385039050809150509392505050565b828054600181600116156101000203166002900490600052602060002090601f016020900481019282601f1061274057805160ff191683800117855561276e565b8280016001018555821561276e579182015b8281111561276d578251825591602001919060010190612752565b5b50905061277b91906127ab565b5090565b8154818355818111156127a6578183600052602060002091820191016127a591906127ab565b5b505050565b6127cd91905b808211156127c95760008160009055506001016127b1565b5090565b90565b6000813590506127df81613b3d565b92915050565b600082601f8301126127f657600080fd5b6002612809612804826138f3565b6138c6565b9150818385602084028201111561281f57600080fd5b60005b8381101561284f57816128358882612ad7565b845260208401935060208301925050600181019050612822565b5050505092915050565b600082601f83011261286a57600080fd5b600261287d61287882613915565b6138c6565b9150818385602084028201111561289357600080fd5b60005b838110156128c357816128a98882612ad7565b845260208401935060208301925050600181019050612896565b5050505092915050565b6000813590506128dc81613b54565b92915050565b6000815190506128f181613b54565b92915050565b60008135905061290681613b6b565b92915050565b60008135905061291b81613b82565b92915050565b60008151905061293081613b82565b92915050565b600082601f83011261294757600080fd5b813561295a61295582613937565b6138c6565b9150808252602083016020830185838301111561297657600080fd5b612981838284613ae0565b50505092915050565b600082601f83011261299b57600080fd5b81356129ae6129a982613963565b6138c6565b915080825260208301602083018583830111156129ca57600080fd5b6129d5838284613ae0565b50505092915050565b6000604082840312156129f057600080fd5b6129fa60406138c6565b90506000612a0a84828501612ad7565b6000830152506020612a1e84828501612ad7565b60208301525092915050565b600060808284031215612a3c57600080fd5b612a4660406138c6565b90506000612a56848285016127e5565b6000830152506040612a6a848285016127e5565b60208301525092915050565b60006101008284031215612a8957600080fd5b612a9360606138c6565b90506000612aa3848285016129de565b6000830152506040612ab784828501612a2a565b60208301525060c0612acb848285016129de565b60408301525092915050565b600081359050612ae681613b99565b92915050565b600060208284031215612afe57600080fd5b6000612b0c848285016127d0565b91505092915050565b60008060408385031215612b2857600080fd5b6000612b36858286016127d0565b9250506020612b47858286016127d0565b9150509250929050565b600080600060608486031215612b6657600080fd5b6000612b74868287016127d0565b9350506020612b85868287016127d0565b9250506040612b9686828701612ad7565b9150509250925092565b60008060008060808587031215612bb657600080fd5b6000612bc4878288016127d0565b9450506020612bd5878288016127d0565b9350506040612be687828801612ad7565b925050606085013567ffffffffffffffff811115612c0357600080fd5b612c0f87828801612936565b91505092959194509250565b60008060408385031215612c2e57600080fd5b6000612c3c858286016127d0565b9250506020612c4d858286016128cd565b9150509250929050565b60008060408385031215612c6a57600080fd5b6000612c78858286016127d0565b9250506020612c8985828601612ad7565b9150509250929050565b600080600060608486031215612ca857600080fd5b6000612cb6868287016127d0565b9350506020612cc786828701612ad7565b925050604084013567ffffffffffffffff811115612ce457600080fd5b612cf08682870161298a565b9150509250925092565b6000806000806101808587031215612d1157600080fd5b6000612d1f878288016127d0565b9450506020612d3087828801612ad7565b9350506040612d4187828801612a76565b925050610140612d5387828801612859565b91505092959194509250565b600060208284031215612d7157600080fd5b6000612d7f848285016128e2565b91505092915050565b600080600060608486031215612d9d57600080fd5b6000612dab868287016128f7565b9350506020612dbc868287016127d0565b9250506040612dcd86828701612ad7565b9150509250925092565b60008060408385031215612dea57600080fd5b6000612df8858286016128f7565b925050602083013567ffffffffffffffff811115612e1557600080fd5b612e218582860161298a565b9150509250929050565b600080600060608486031215612e4057600080fd5b6000612e4e868287016128f7565b935050602084013567ffffffffffffffff811115612e6b57600080fd5b612e778682870161298a565b925050604084013567ffffffffffffffff811115612e9457600080fd5b612ea086828701612936565b9150509250925092565b600060208284031215612ebc57600080fd5b6000612eca8482850161290c565b91505092915050565b600060208284031215612ee557600080fd5b6000612ef384828501612921565b91505092915050565b600060208284031215612f0e57600080fd5b6000612f1c84828501612ad7565b91505092915050565b6000612f318383613558565b60208301905092915050565b6000612f498383613576565b60208301905092915050565b612f5e81613aaa565b82525050565b612f6d81613a2c565b82525050565b612f7c816139ae565b612f8681846139f4565b9250612f9182613999565b8060005b83811015612fc2578151612fa98782612f25565b9650612fb4836139dc565b925050600181019050612f95565b505050505050565b612fd3816139ae565b612fdd81846139ff565b9250612fe882613999565b8060005b838110156130195781516130008782612f3d565b965061300b836139dc565b925050600181019050612fec565b505050505050565b61302a816139a3565b61303481846139e9565b925061303f8261398f565b8060005b838110156130705781516130578782612f25565b9650613062836139cf565b925050600181019050613043565b505050505050565b613081816139a3565b61308b81846139ff565b92506130968261398f565b8060005b838110156130c75781516130ae8782612f3d565b96506130b9836139cf565b92505060018101905061309a565b505050505050565b6130d881613a3e565b82525050565b6130e781613a4a565b82525050565b60006130f8826139b9565b6131028185613a0a565b9350613112818560208601613aef565b61311b81613b2c565b840191505092915050565b6000613131826139c4565b61313b8185613a1b565b935061314b818560208601613aef565b61315481613b2c565b840191505092915050565b600061316c601483613a1b565b91507f41646472657373206973206e6f742076616c69640000000000000000000000006000830152602082019050919050565b60006131ac601b83613a1b565b91507f6f776e6572206d7573742062652076616c6964206164647265737300000000006000830152602082019050919050565b60006131ec601483613a1b565b91507f4e6f7420612076616c696420736f6c7574696f6e0000000000000000000000006000830152602082019050919050565b600061322c601483613a1b565b91507f546f6b656e20616c7265616479206578697374730000000000000000000000006000830152602082019050919050565b600061326c602c83613a1b565b91507f61646472657373206d757374206e6f7420626520746865206f776e6572206f6660008301527f2074686520746f6b656e496400000000000000000000000000000000000000006020830152604082019050919050565b60006132d2602b83613a1b565b91507f46726f6d2061646472657373206d75737420626520746865206f776e6572206f60008301527f662074686520746f6b656e0000000000000000000000000000000000000000006020830152604082019050919050565b6000613338601783613a1b565b91507f546f2061646472657373206973206e6f742076616c69640000000000000000006000830152602082019050919050565b6000613378601483613a1b565b91507f546f6b656e20646f6573206e6f742065786973740000000000000000000000006000830152602082019050919050565b60006133b8605783613a1b565b91507f6d73672073656e646572206e6565647320746f20626520746865206f776e657260008301527f206f662074686520636f6e7472616374206f72206973417070726f766564466f60208301527f72416c6c2829206e6565647320746f20626520747275650000000000000000006040830152606082019050919050565b6000613444601783613a1b565b91507f536f6c7574696f6e20616c7265616479206578697374730000000000000000006000830152602082019050919050565b6000613484601d83613a1b565b91507f546f6b656e20617070726f76616c20646f6573206e6f742065786973740000006000830152602082019050919050565b6040820160008201516134cd6000850182613558565b5060208201516134e06020850182613558565b50505050565b6080820160008201516134fc6000850182613021565b50602082015161350f6040850182613021565b50505050565b6101008201600082015161352c60008501826134b7565b50602082015161353f60408501826134e6565b50604082015161355260c08501826134b7565b50505050565b61356181613aa0565b82525050565b61357081613aa0565b82525050565b61357f81613aa0565b82525050565b61359661359182613aa0565b613b22565b82525050565b60006135a8828a613585565b6020820191506135b88289613585565b6020820191506135c88288613078565b6040820191506135d88287613078565b6040820191506135e88286613585565b6020820191506135f88285613585565b6020820191506136088284612fca565b60408201915081905098975050505050505050565b60006020820190506136326000830184612f64565b92915050565b600060208201905061364d6000830184612f55565b92915050565b60006080820190506136686000830187612f55565b6136756020830186612f64565b6136826040830185613567565b818103606083015261369481846130ed565b905095945050505050565b60006020820190506136b460008301846130cf565b92915050565b60006020820190506136cf60008301846130de565b92915050565b600060208201905081810360008301526136ef8184613126565b905092915050565b600060208201905081810360008301526137108161315f565b9050919050565b600060208201905081810360008301526137308161319f565b9050919050565b60006020820190508181036000830152613750816131df565b9050919050565b600060208201905081810360008301526137708161321f565b9050919050565b600060208201905081810360008301526137908161325f565b9050919050565b600060208201905081810360008301526137b0816132c5565b9050919050565b600060208201905081810360008301526137d08161332b565b9050919050565b600060208201905081810360008301526137f08161336b565b9050919050565b60006020820190508181036000830152613810816133ab565b9050919050565b6000602082019050818103600083015261383081613437565b9050919050565b6000602082019050818103600083015261385081613477565b9050919050565b60006101408201905061386d6000830185613515565b61387b610100830184612f73565b9392505050565b60006020820190506138976000830184613567565b92915050565b60006040820190506138b26000830185613567565b6138bf6020830184612f64565b9392505050565b6000604051905081810181811067ffffffffffffffff821117156138e957600080fd5b8060405250919050565b600067ffffffffffffffff82111561390a57600080fd5b602082029050919050565b600067ffffffffffffffff82111561392c57600080fd5b602082029050919050565b600067ffffffffffffffff82111561394e57600080fd5b601f19601f8301169050602081019050919050565b600067ffffffffffffffff82111561397a57600080fd5b601f19601f8301169050602081019050919050565b6000819050919050565b6000819050919050565b600060029050919050565b600060029050919050565b600081519050919050565b600081519050919050565b6000602082019050919050565b6000602082019050919050565b600081905092915050565b600081905092915050565b600081905092915050565b600082825260208201905092915050565b600082825260208201905092915050565b6000613a3782613a80565b9050919050565b60008115159050919050565b6000819050919050565b60007fffffffff0000000000000000000000000000000000000000000000000000000082169050919050565b600073ffffffffffffffffffffffffffffffffffffffff82169050919050565b6000819050919050565b6000613ab582613abc565b9050919050565b6000613ac782613ace565b9050919050565b6000613ad982613a80565b9050919050565b82818337600083830152505050565b60005b83811015613b0d578082015181840152602081019050613af2565b83811115613b1c576000848401525b50505050565b6000819050919050565b6000601f19601f8301169050919050565b613b4681613a2c565b8114613b5157600080fd5b50565b613b5d81613a3e565b8114613b6857600080fd5b50565b613b7481613a4a565b8114613b7f57600080fd5b50565b613b8b81613a54565b8114613b9657600080fd5b50565b613ba281613aa0565b8114613bad57600080fd5b5056fea365627a7a72315820ca7e1ae9ee9875dc9b2dd4b8c366d0410891fc057c53c3e2388e6c089fa41ed86c6578706572696d656e74616cf564736f6c6343000510004068747470733a2f2f73332d75732d776573742d322e616d617a6f6e6177732e636f6d2f756461636974792d626c6f636b636861696e2f63617073746f6e652f",
  "source": "pragma solidity >=0.4.21 <0.6.0;\npragma experimental ABIEncoderV2;\n\n// TODO define a contract call to the zokrates generated solidity contract <Verifier> or <renamedVerifier>\n\nimport \"./ERC721Mintable.sol\";\nimport \"./SquareVerifier.sol\";\n\n// TODO define another contract named SolnSquareVerifier that inherits from your ERC721Mintable class\n\ncontract SolnSquareVerifier is StoneCapToken {\n  SquareVerifier verifier;\n\n    constructor(address owner) public {\n        verifier = SquareVerifier(owner);\n    }\n\n// TODO define a solutions struct that can hold an index & an address\n    struct Solution {\n        uint256 index;\n        address account;\n    }\n\n    uint256 numSolutions = 0;\n\n// TODO define an array of the above struct\n    mapping(bytes32 => Solution) solutions;\n\n\n// TODO define a mapping to store unique solutions submitted\n    mapping(uint256 => bytes32) private submittedSolutions;\n\n// TODO Create an event to emit when a solution is added\n    event SolutionAdded(uint256 index, address account);\n\n// TODO Create a function to add the solutions to the array and emit the event\n    function addSolution(bytes32 key, address solution_account, uint256 solution_index) public {\n        \n        solutions[key].index = solution_index;\n        solutions[key].account = solution_account;\n\n        numSolutions++;\n\n        emit SolutionAdded(solution_index, solution_account);\n    }\n\n    function getNumSolutions() public returns(uint256){\n        \n        return numSolutions;\n    }\n\n// TODO Create a function to mint new NFT only after the solution has been verified\n//  - make sure the solution is unique (has not been used before)\n//  - make sure you handle metadata as well as tokenSuplly\n\n    function mintToken(address account, uint256 index, SquareVerifier.Proof memory proof, uint[2] memory input) public returns(bool) {\n\n                require(verifier.verifyTx(proof, input), \"Not a valid solution\");\n\n                bytes32 key = keccak256(abi.encodePacked(proof.a.X, proof.a.Y, proof.b.X, proof.b.Y, proof.c.X, proof.c.Y, input));\n\n                require(solutions[key].account == address(0x0), \"Solution already exists\");\n\n                addSolution(key, account, index);\n\n                string memory baseTokenUri = super.getBaseTokenURI();\n\n                return super.mint(account, index, baseTokenUri);\n    }  \n\n    function getKey(address account, uint256 index, SquareVerifier.Proof memory proof, uint[2] memory input) public returns(bytes32) {\n        \n        bytes32 key = keccak256(abi.encodePacked(proof.a.X, proof.a.Y, proof.b.X, proof.b.Y, proof.c.X, proof.c.Y, input));\n        return key;\n    }\n}\n",
  "sourcePath": "/Users/toddskinner/BlockchainCourse/Blockchain-Capstone-master/eth-contracts/contracts/SolnSquareVerifier.sol",
  "compiler": {
    "name": "solc",
    "version": "0.5.16+commit.9c3226ce.Emscripten.clang"
  },
  "schemaVersion": "3.4.4",
  "updatedAt": "2022-01-27T07:47:56.142Z",
  "networkType": "ethereum",
  "devdoc": {
    "methods": {
      "isApprovedForAll(address,address)": {
        "details": "Tells whether an operator is approved by a given owner",
        "params": {
          "operator": "operator address which you want to query the approval of",
          "owner": "owner address which you want to query the approval of"
        },
        "return": "bool whether the given operator is approved by the given owner"
      },
      "setApprovalForAll(address,bool)": {
        "details": "Sets or unsets the approval of a given operator An operator is allowed to transfer all tokens of the sender on their behalf",
        "params": {
          "approved": "representing the status of the approval to be set",
          "to": "operator address to set the approval"
        }
      },
      "supportsInterface(bytes4)": {
        "details": "implement supportsInterface(bytes4) using a lookup table"
      },
      "tokenByIndex(uint256)": {
        "details": "Gets the token ID at a given index of all the tokens in this contract Reverts if the index is greater or equal to the total number of tokens",
        "params": {
          "index": "uint256 representing the index to be accessed of the tokens list"
        },
        "return": "uint256 token ID at the given index of the tokens list"
      },
      "tokenOfOwnerByIndex(address,uint256)": {
        "details": "Gets the token ID at a given index of the tokens list of the requested owner",
        "params": {
          "index": "uint256 representing the index to be accessed of the requested tokens list",
          "owner": "address owning the tokens list to be accessed"
        },
        "return": "uint256 token ID at the given index of the tokens list owned by the requested address"
      },
      "totalSupply()": {
        "details": "Gets the total amount of tokens stored by the contract",
        "return": "uint256 representing the total amount of tokens"
      }
    }
  },
  "userdoc": {
    "methods": {
      "isOwner()": {
        "notice": "Check if the calling address is the owner of the contract"
      }
    }
  }
}