{
  "contractName": "SolnSquareVerifier",
  "abi": [
    {
      "inputs": [
        {
          "internalType": "address",
          "name": "owner",
          "type": "address"
        }
      ],
      "payable": false,
      "stateMutability": "nonpayable",
      "type": "constructor"
    },
    {
      "anonymous": false,
      "inputs": [
        {
          "indexed": true,
          "internalType": "address",
          "name": "owner",
          "type": "address"
        },
        {
          "indexed": true,
          "internalType": "address",
          "name": "approved",
          "type": "address"
        },
        {
          "indexed": true,
          "internalType": "uint256",
          "name": "tokenId",
          "type": "uint256"
        }
      ],
      "name": "Approval",
      "type": "event"
    },
    {
      "anonymous": false,
      "inputs": [
        {
          "indexed": true,
          "internalType": "address",
          "name": "owner",
          "type": "address"
        },
        {
          "indexed": true,
          "internalType": "address",
          "name": "operator",
          "type": "address"
        },
        {
          "indexed": false,
          "internalType": "bool",
          "name": "approved",
          "type": "bool"
        }
      ],
      "name": "ApprovalForAll",
      "type": "event"
    },
    {
      "anonymous": false,
      "inputs": [
        {
          "indexed": false,
          "internalType": "address",
          "name": "trigger_address",
          "type": "address"
        }
      ],
      "name": "Paused",
      "type": "event"
    },
    {
      "anonymous": false,
      "inputs": [
        {
          "indexed": false,
          "internalType": "uint256",
          "name": "index",
          "type": "uint256"
        },
        {
          "indexed": false,
          "internalType": "address",
          "name": "account",
          "type": "address"
        }
      ],
      "name": "SolutionAdded",
      "type": "event"
    },
    {
      "anonymous": false,
      "inputs": [
        {
          "indexed": true,
          "internalType": "address",
          "name": "from",
          "type": "address"
        },
        {
          "indexed": true,
          "internalType": "address",
          "name": "to",
          "type": "address"
        },
        {
          "indexed": true,
          "internalType": "uint256",
          "name": "tokenId",
          "type": "uint256"
        }
      ],
      "name": "Transfer",
      "type": "event"
    },
    {
      "anonymous": false,
      "inputs": [
        {
          "indexed": true,
          "internalType": "address",
          "name": "oldOwner",
          "type": "address"
        },
        {
          "indexed": true,
          "internalType": "address",
          "name": "newOwner",
          "type": "address"
        }
      ],
      "name": "TransferOwnership",
      "type": "event"
    },
    {
      "anonymous": false,
      "inputs": [
        {
          "indexed": false,
          "internalType": "address",
          "name": "trigger_address",
          "type": "address"
        }
      ],
      "name": "Unpaused",
      "type": "event"
    },
    {
      "constant": false,
      "inputs": [
        {
          "internalType": "bytes32",
          "name": "_myid",
          "type": "bytes32"
        },
        {
          "internalType": "string",
          "name": "_result",
          "type": "string"
        }
      ],
      "name": "__callback",
      "outputs": [],
      "payable": false,
      "stateMutability": "nonpayable",
      "type": "function"
    },
    {
      "constant": false,
      "inputs": [
        {
          "internalType": "bytes32",
          "name": "_myid",
          "type": "bytes32"
        },
        {
          "internalType": "string",
          "name": "_result",
          "type": "string"
        },
        {
          "internalType": "bytes",
          "name": "_proof",
          "type": "bytes"
        }
      ],
      "name": "__callback",
      "outputs": [],
      "payable": false,
      "stateMutability": "nonpayable",
      "type": "function"
    },
    {
      "constant": false,
      "inputs": [
        {
          "internalType": "address",
          "name": "to",
          "type": "address"
        },
        {
          "internalType": "uint256",
          "name": "tokenId",
          "type": "uint256"
        }
      ],
      "name": "approve",
      "outputs": [],
      "payable": false,
      "stateMutability": "nonpayable",
      "type": "function"
    },
    {
      "constant": true,
      "inputs": [
        {
          "internalType": "address",
          "name": "owner",
          "type": "address"
        }
      ],
      "name": "balanceOf",
      "outputs": [
        {
          "internalType": "uint256",
          "name": "",
          "type": "uint256"
        }
      ],
      "payable": false,
      "stateMutability": "view",
      "type": "function"
    },
    {
      "constant": true,
      "inputs": [
        {
          "internalType": "uint256",
          "name": "tokenId",
          "type": "uint256"
        }
      ],
      "name": "getApproved",
      "outputs": [
        {
          "internalType": "address",
          "name": "",
          "type": "address"
        }
      ],
      "payable": false,
      "stateMutability": "view",
      "type": "function"
    },
    {
      "constant": true,
      "inputs": [],
      "name": "getBaseTokenURI",
      "outputs": [
        {
          "internalType": "string",
          "name": "",
          "type": "string"
        }
      ],
      "payable": false,
      "stateMutability": "view",
      "type": "function"
    },
    {
      "constant": true,
      "inputs": [],
      "name": "getName",
      "outputs": [
        {
          "internalType": "string",
          "name": "",
          "type": "string"
        }
      ],
      "payable": false,
      "stateMutability": "view",
      "type": "function"
    },
    {
      "constant": true,
      "inputs": [],
      "name": "getOwner",
      "outputs": [
        {
          "internalType": "address",
          "name": "",
          "type": "address"
        }
      ],
      "payable": false,
      "stateMutability": "view",
      "type": "function"
    },
    {
      "constant": true,
      "inputs": [],
      "name": "getSymbol",
      "outputs": [
        {
          "internalType": "string",
          "name": "",
          "type": "string"
        }
      ],
      "payable": false,
      "stateMutability": "view",
      "type": "function"
    },
    {
      "constant": true,
      "inputs": [
        {
          "internalType": "address",
          "name": "owner",
          "type": "address"
        },
        {
          "internalType": "address",
          "name": "operator",
          "type": "address"
        }
      ],
      "name": "isApprovedForAll",
      "outputs": [
        {
          "internalType": "bool",
          "name": "",
          "type": "bool"
        }
      ],
      "payable": false,
      "stateMutability": "view",
      "type": "function"
    },
    {
      "constant": true,
      "inputs": [],
      "name": "isOwner",
      "outputs": [
        {
          "internalType": "bool",
          "name": "",
          "type": "bool"
        }
      ],
      "payable": false,
      "stateMutability": "view",
      "type": "function"
    },
    {
      "constant": false,
      "inputs": [
        {
          "internalType": "address",
          "name": "to",
          "type": "address"
        },
        {
          "internalType": "uint256",
          "name": "tokenId",
          "type": "uint256"
        },
        {
          "internalType": "string",
          "name": "tokenURI",
          "type": "string"
        }
      ],
      "name": "mint",
      "outputs": [
        {
          "internalType": "bool",
          "name": "",
          "type": "bool"
        }
      ],
      "payable": false,
      "stateMutability": "nonpayable",
      "type": "function"
    },
    {
      "constant": true,
      "inputs": [
        {
          "internalType": "uint256",
          "name": "tokenId",
          "type": "uint256"
        }
      ],
      "name": "ownerOf",
      "outputs": [
        {
          "internalType": "address",
          "name": "",
          "type": "address"
        }
      ],
      "payable": false,
      "stateMutability": "view",
      "type": "function"
    },
    {
      "constant": false,
      "inputs": [],
      "name": "pause",
      "outputs": [],
      "payable": false,
      "stateMutability": "nonpayable",
      "type": "function"
    },
    {
      "constant": false,
      "inputs": [
        {
          "internalType": "address",
          "name": "from",
          "type": "address"
        },
        {
          "internalType": "address",
          "name": "to",
          "type": "address"
        },
        {
          "internalType": "uint256",
          "name": "tokenId",
          "type": "uint256"
        }
      ],
      "name": "safeTransferFrom",
      "outputs": [],
      "payable": false,
      "stateMutability": "nonpayable",
      "type": "function"
    },
    {
      "constant": false,
      "inputs": [
        {
          "internalType": "address",
          "name": "from",
          "type": "address"
        },
        {
          "internalType": "address",
          "name": "to",
          "type": "address"
        },
        {
          "internalType": "uint256",
          "name": "tokenId",
          "type": "uint256"
        },
        {
          "internalType": "bytes",
          "name": "_data",
          "type": "bytes"
        }
      ],
      "name": "safeTransferFrom",
      "outputs": [],
      "payable": false,
      "stateMutability": "nonpayable",
      "type": "function"
    },
    {
      "constant": false,
      "inputs": [
        {
          "internalType": "address",
          "name": "to",
          "type": "address"
        },
        {
          "internalType": "bool",
          "name": "approved",
          "type": "bool"
        }
      ],
      "name": "setApprovalForAll",
      "outputs": [],
      "payable": false,
      "stateMutability": "nonpayable",
      "type": "function"
    },
    {
      "constant": true,
      "inputs": [
        {
          "internalType": "bytes4",
          "name": "interfaceId",
          "type": "bytes4"
        }
      ],
      "name": "supportsInterface",
      "outputs": [
        {
          "internalType": "bool",
          "name": "",
          "type": "bool"
        }
      ],
      "payable": false,
      "stateMutability": "view",
      "type": "function"
    },
    {
      "constant": true,
      "inputs": [
        {
          "internalType": "uint256",
          "name": "index",
          "type": "uint256"
        }
      ],
      "name": "tokenByIndex",
      "outputs": [
        {
          "internalType": "uint256",
          "name": "",
          "type": "uint256"
        }
      ],
      "payable": false,
      "stateMutability": "view",
      "type": "function"
    },
    {
      "constant": true,
      "inputs": [
        {
          "internalType": "address",
          "name": "owner",
          "type": "address"
        },
        {
          "internalType": "uint256",
          "name": "index",
          "type": "uint256"
        }
      ],
      "name": "tokenOfOwnerByIndex",
      "outputs": [
        {
          "internalType": "uint256",
          "name": "",
          "type": "uint256"
        }
      ],
      "payable": false,
      "stateMutability": "view",
      "type": "function"
    },
    {
      "constant": true,
      "inputs": [
        {
          "internalType": "uint256",
          "name": "tokenId",
          "type": "uint256"
        }
      ],
      "name": "tokenURI",
      "outputs": [
        {
          "internalType": "string",
          "name": "",
          "type": "string"
        }
      ],
      "payable": false,
      "stateMutability": "view",
      "type": "function"
    },
    {
      "constant": true,
      "inputs": [],
      "name": "totalSupply",
      "outputs": [
        {
          "internalType": "uint256",
          "name": "",
          "type": "uint256"
        }
      ],
      "payable": false,
      "stateMutability": "view",
      "type": "function"
    },
    {
      "constant": false,
      "inputs": [
        {
          "internalType": "address",
          "name": "from",
          "type": "address"
        },
        {
          "internalType": "address",
          "name": "to",
          "type": "address"
        },
        {
          "internalType": "uint256",
          "name": "tokenId",
          "type": "uint256"
        }
      ],
      "name": "transferFrom",
      "outputs": [],
      "payable": false,
      "stateMutability": "nonpayable",
      "type": "function"
    },
    {
      "constant": false,
      "inputs": [
        {
          "internalType": "address",
          "name": "newOwner",
          "type": "address"
        }
      ],
      "name": "transferOwnership",
      "outputs": [],
      "payable": false,
      "stateMutability": "nonpayable",
      "type": "function"
    },
    {
      "constant": false,
      "inputs": [],
      "name": "unpause",
      "outputs": [],
      "payable": false,
      "stateMutability": "nonpayable",
      "type": "function"
    },
    {
      "constant": false,
      "inputs": [
        {
          "internalType": "bytes32",
          "name": "key",
          "type": "bytes32"
        },
        {
          "internalType": "address",
          "name": "solution_account",
          "type": "address"
        },
        {
          "internalType": "uint256",
          "name": "solution_index",
          "type": "uint256"
        }
      ],
      "name": "addSolution",
      "outputs": [],
      "payable": false,
      "stateMutability": "nonpayable",
      "type": "function"
    },
    {
      "constant": false,
      "inputs": [],
      "name": "getNumSolutions",
      "outputs": [
        {
          "internalType": "uint256",
          "name": "",
          "type": "uint256"
        }
      ],
      "payable": false,
      "stateMutability": "nonpayable",
      "type": "function"
    },
    {
      "constant": false,
      "inputs": [
        {
          "internalType": "address",
          "name": "account",
          "type": "address"
        },
        {
          "internalType": "uint256",
          "name": "index",
          "type": "uint256"
        },
        {
          "components": [
            {
              "components": [
                {
                  "internalType": "uint256",
                  "name": "X",
                  "type": "uint256"
                },
                {
                  "internalType": "uint256",
                  "name": "Y",
                  "type": "uint256"
                }
              ],
              "internalType": "struct Pairing.G1Point",
              "name": "a",
              "type": "tuple"
            },
            {
              "components": [
                {
                  "internalType": "uint256[2]",
                  "name": "X",
                  "type": "uint256[2]"
                },
                {
                  "internalType": "uint256[2]",
                  "name": "Y",
                  "type": "uint256[2]"
                }
              ],
              "internalType": "struct Pairing.G2Point",
              "name": "b",
              "type": "tuple"
            },
            {
              "components": [
                {
                  "internalType": "uint256",
                  "name": "X",
                  "type": "uint256"
                },
                {
                  "internalType": "uint256",
                  "name": "Y",
                  "type": "uint256"
                }
              ],
              "internalType": "struct Pairing.G1Point",
              "name": "c",
              "type": "tuple"
            }
          ],
          "internalType": "struct SquareVerifier.Proof",
          "name": "proof",
          "type": "tuple"
        },
        {
          "internalType": "uint256[2]",
          "name": "input",
          "type": "uint256[2]"
        }
      ],
      "name": "mintToken",
      "outputs": [
        {
          "internalType": "bool",
          "name": "",
          "type": "bool"
        }
      ],
      "payable": false,
      "stateMutability": "nonpayable",
      "type": "function"
    },
    {
      "constant": false,
      "inputs": [
        {
          "internalType": "address",
          "name": "account",
          "type": "address"
        },
        {
          "internalType": "uint256",
          "name": "index",
          "type": "uint256"
        },
        {
          "components": [
            {
              "components": [
                {
                  "internalType": "uint256",
                  "name": "X",
                  "type": "uint256"
                },
                {
                  "internalType": "uint256",
                  "name": "Y",
                  "type": "uint256"
                }
              ],
              "internalType": "struct Pairing.G1Point",
              "name": "a",
              "type": "tuple"
            },
            {
              "components": [
                {
                  "internalType": "uint256[2]",
                  "name": "X",
                  "type": "uint256[2]"
                },
                {
                  "internalType": "uint256[2]",
                  "name": "Y",
                  "type": "uint256[2]"
                }
              ],
              "internalType": "struct Pairing.G2Point",
              "name": "b",
              "type": "tuple"
            },
            {
              "components": [
                {
                  "internalType": "uint256",
                  "name": "X",
                  "type": "uint256"
                },
                {
                  "internalType": "uint256",
                  "name": "Y",
                  "type": "uint256"
                }
              ],
              "internalType": "struct Pairing.G1Point",
              "name": "c",
              "type": "tuple"
            }
          ],
          "internalType": "struct SquareVerifier.Proof",
          "name": "proof",
          "type": "tuple"
        },
        {
          "internalType": "uint256[2]",
          "name": "input",
          "type": "uint256[2]"
        }
      ],
      "name": "getKey",
      "outputs": [
        {
          "internalType": "bytes32",
          "name": "",
          "type": "bytes32"
        }
      ],
      "payable": false,
      "stateMutability": "nonpayable",
      "type": "function"
    }
  ],
  "bytecode": "0x608060405260006014553480156200001657600080fd5b5060405162003f7c38038062003f7c83398181016040526200003c9190810190620003da565b6040518060400160405280600e81526020017f53746f6e6543617020546f6b656e0000000000000000000000000000000000008152506040518060400160405280600481526020017f53434150000000000000000000000000000000000000000000000000000000008152506040518060600160405280603f815260200162003f3d603f9139336000806101000a81548173ffffffffffffffffffffffffffffffffffffffff021916908373ffffffffffffffffffffffffffffffffffffffff1602179055506000809054906101000a900473ffffffffffffffffffffffffffffffffffffffff1673ffffffffffffffffffffffffffffffffffffffff16600073ffffffffffffffffffffffffffffffffffffffff167f5c486528ec3e3f0ea91181cff8116f02bfa350e03b8b6f12e00765adbb5af85c60405160405180910390a3620001966301ffc9a760e01b6200027460201b60201c565b620001ae6380ac58cd60e01b6200027460201b60201c565b620001c663780e9d6360e01b6200027460201b60201c565b82600f9080519060200190620001de92919062000314565b508160109080519060200190620001f792919062000314565b5080601190805190602001906200021092919062000314565b5062000229635b5e139f60e01b6200027460201b60201c565b50505080601360006101000a81548173ffffffffffffffffffffffffffffffffffffffff021916908373ffffffffffffffffffffffffffffffffffffffff1602179055505062000454565b63ffffffff60e01b817bffffffffffffffffffffffffffffffffffffffffffffffffffffffff19161415620002a857600080fd5b6001806000837bffffffffffffffffffffffffffffffffffffffffffffffffffffffff19167bffffffffffffffffffffffffffffffffffffffffffffffffffffffff1916815260200190815260200160002060006101000a81548160ff02191690831515021790555050565b828054600181600116156101000203166002900490600052602060002090601f016020900481019282601f106200035757805160ff191683800117855562000388565b8280016001018555821562000388579182015b82811115620003875782518255916020019190600101906200036a565b5b5090506200039791906200039b565b5090565b620003c091905b80821115620003bc576000816000905550600101620003a2565b5090565b90565b600081519050620003d4816200043a565b92915050565b600060208284031215620003ed57600080fd5b6000620003fd84828501620003c3565b91505092915050565b600062000413826200041a565b9050919050565b600073ffffffffffffffffffffffffffffffffffffffff82169050919050565b620004458162000406565b81146200045157600080fd5b50565b613ad980620004646000396000f3fe608060405234801561001057600080fd5b50600436106101cf5760003560e01c80636352211e11610104578063bdc32be0116100a2578063dca5d45b11610071578063dca5d45b1461052e578063e985e9c51461054a578063f2aa06831461057a578063f2fde38b146105aa576101cf565b8063bdc32be014610480578063c87b56dd1461049e578063d3fc9864146104ce578063d907f86f146104fe576101cf565b8063893d20e8116100de578063893d20e81461040c5780638f32d59b1461042a578063a22cb46514610448578063b88d4fde14610464576101cf565b80636352211e146103a257806370a08231146103d25780638456cb5914610402576101cf565b806327dc297e116101715780633b605ec31161014b5780633b605ec31461032e5780633f4ba83a1461034c57806342842e0e146103565780634f6ccce714610372576101cf565b806327dc297e146102c65780632f745c59146102e257806338bbfa5014610312576101cf565b806315070401116101ad578063150704011461025057806317d7de7c1461026e57806318160ddd1461028c57806323b872dd146102aa576101cf565b806301ffc9a7146101d4578063081812fc14610204578063095ea7b314610234575b600080fd5b6101ee60048036036101e99190810190612df0565b6105c6565b6040516101fb91906135a5565b60405180910390f35b61021e60048036036102199190810190612e42565b61062e565b60405161022b9190613523565b60405180910390f35b61024e60048036036102499190810190612b9d565b6106b3565b005b610258610868565b60405161026591906135db565b60405180910390f35b61027661090a565b60405161028391906135db565b60405180910390f35b6102946109ac565b6040516102a19190613768565b60405180910390f35b6102c460048036036102bf9190810190612a97565b6109b9565b005b6102e060048036036102db9190810190612d1d565b6109dc565b005b6102fc60048036036102f79190810190612b9d565b610a1f565b6040516103099190613768565b60405180910390f35b61032c60048036036103279190810190612d71565b610a92565b005b610336610a97565b6040516103439190613768565b60405180910390f35b610354610aa1565b005b610370600480360361036b9190810190612a97565b610b1e565b005b61038c60048036036103879190810190612e42565b610b3e565b6040516103999190613768565b60405180910390f35b6103bc60048036036103b79190810190612e42565b610b72565b6040516103c99190613523565b60405180910390f35b6103ec60048036036103e79190810190612a32565b610c51565b6040516103f99190613768565b60405180910390f35b61040a610d10565b005b610414610d8f565b6040516104219190613523565b60405180910390f35b610432610db8565b60405161043f91906135a5565b60405180910390f35b610462600480360361045d9190810190612b61565b610e0f565b005b61047e60048036036104799190810190612ae6565b610f45565b005b610488610f6b565b60405161049591906135db565b60405180910390f35b6104b860048036036104b39190810190612e42565b61100d565b6040516104c591906135db565b60405180910390f35b6104e860048036036104e39190810190612bd9565b6110d4565b6040516104f591906135a5565b60405180910390f35b61051860048036036105139190810190612c40565b611105565b60405161052591906135c0565b60405180910390f35b61054860048036036105439190810190612cce565b611179565b005b610564600480360361055f9190810190612a5b565b611239565b60405161057191906135a5565b60405180910390f35b610594600480360361058f9190810190612c40565b6112cd565b6040516105a191906135a5565b60405180910390f35b6105c460048036036105bf9190810190612a32565b6114f5565b005b600060016000837bffffffffffffffffffffffffffffffffffffffffffffffffffffffff19167bffffffffffffffffffffffffffffffffffffffffffffffffffffffff1916815260200190815260200160002060009054906101000a900460ff169050919050565b600061063982611512565b610678576040517f08c379a000000000000000000000000000000000000000000000000000000000815260040161066f906136dd565b60405180910390fd5b6003600083815260200190815260200160002060009054906101000a900473ffffffffffffffffffffffffffffffffffffffff169050919050565b60006106be82610b72565b90508073ffffffffffffffffffffffffffffffffffffffff168373ffffffffffffffffffffffffffffffffffffffff16141561072f576040517f08c379a00000000000000000000000000000000000000000000000000000000081526004016107269061367d565b60405180910390fd5b8073ffffffffffffffffffffffffffffffffffffffff163373ffffffffffffffffffffffffffffffffffffffff161480610777575061077661077083610b72565b33611239565b5b6107b6576040517f08c379a00000000000000000000000000000000000000000000000000000000081526004016107ad906136fd565b60405180910390fd5b826003600084815260200190815260200160002060006101000a81548173ffffffffffffffffffffffffffffffffffffffff021916908373ffffffffffffffffffffffffffffffffffffffff160217905550818373ffffffffffffffffffffffffffffffffffffffff168273ffffffffffffffffffffffffffffffffffffffff167f8c5be1e5ebec7d5bd14f71427d1e84f3dd0314c0f7b2291e5b200ac8c7c3b92560405160405180910390a4505050565b606060108054600181600116156101000203166002900480601f0160208091040260200160405190810160405280929190818152602001828054600181600116156101000203166002900480156109005780601f106108d557610100808354040283529160200191610900565b820191906000526020600020905b8154815290600101906020018083116108e357829003601f168201915b5050505050905090565b6060600f8054600181600116156101000203166002900480601f0160208091040260200160405190810160405280929190818152602001828054600181600116156101000203166002900480156109a25780601f10610977576101008083540402835291602001916109a2565b820191906000526020600020905b81548152906001019060200180831161098557829003601f168201915b5050505050905090565b6000600880549050905090565b6109c33382611584565b6109cc57600080fd5b6109d7838383611619565b505050565b610a1b828260006040519080825280601f01601f191660200182016040528015610a155781602001600182028038833980820191505090505b50610a92565b5050565b6000610a2a83610c51565b8210610a3557600080fd5b600660008473ffffffffffffffffffffffffffffffffffffffff1673ffffffffffffffffffffffffffffffffffffffff1681526020019081526020016000208281548110610a7f57fe5b9060005260206000200154905092915050565b505050565b6000601454905090565b610aa9610db8565b610ab257600080fd5b600060149054906101000a900460ff16610acb57600080fd5b60008060146101000a81548160ff0219169083151502179055507f5db9ee0a495bf2e6ff9c91a7834c1ba4fdd244a5e8aa4e537bd38aeae4b073aa33604051610b14919061353e565b60405180910390a1565b610b3983838360405180602001604052806000815250610f45565b505050565b6000610b486109ac565b8210610b5357600080fd5b60088281548110610b6057fe5b90600052602060002001549050919050565b60008073ffffffffffffffffffffffffffffffffffffffff166002600084815260200190815260200160002060009054906101000a900473ffffffffffffffffffffffffffffffffffffffff1673ffffffffffffffffffffffffffffffffffffffff161415610c16576040517f08c379a0000000000000000000000000000000000000000000000000000000008152600401610c0d9061361d565b60405180910390fd5b6002600083815260200190815260200160002060009054906101000a900473ffffffffffffffffffffffffffffffffffffffff169050919050565b60008073ffffffffffffffffffffffffffffffffffffffff168273ffffffffffffffffffffffffffffffffffffffff161415610cc2576040517f08c379a0000000000000000000000000000000000000000000000000000000008152600401610cb99061361d565b60405180910390fd5b610d09600460008473ffffffffffffffffffffffffffffffffffffffff1673ffffffffffffffffffffffffffffffffffffffff16815260200190815260200160002061163d565b9050919050565b610d18610db8565b610d2157600080fd5b600060149054906101000a900460ff1615610d3b57600080fd5b6001600060146101000a81548160ff0219169083151502179055507f62e78cea01bee320cd4e420270b5ea74000d11b0c9f74754ebdbfc544b05a25833604051610d85919061353e565b60405180910390a1565b60008060009054906101000a900473ffffffffffffffffffffffffffffffffffffffff16905090565b60008060009054906101000a900473ffffffffffffffffffffffffffffffffffffffff1673ffffffffffffffffffffffffffffffffffffffff163373ffffffffffffffffffffffffffffffffffffffff1614905090565b3373ffffffffffffffffffffffffffffffffffffffff168273ffffffffffffffffffffffffffffffffffffffff161415610e4857600080fd5b80600560003373ffffffffffffffffffffffffffffffffffffffff1673ffffffffffffffffffffffffffffffffffffffff16815260200190815260200160002060008473ffffffffffffffffffffffffffffffffffffffff1673ffffffffffffffffffffffffffffffffffffffff16815260200190815260200160002060006101000a81548160ff0219169083151502179055508173ffffffffffffffffffffffffffffffffffffffff163373ffffffffffffffffffffffffffffffffffffffff167f17307eab39ab6107e8899845ad3d59bd9653f200f220920489ca2b5937696c3183604051610f3991906135a5565b60405180910390a35050565b610f508484846109b9565b610f5c8484848461164b565b610f6557600080fd5b50505050565b606060118054600181600116156101000203166002900480601f0160208091040260200160405190810160405280929190818152602001828054600181600116156101000203166002900480156110035780601f10610fd857610100808354040283529160200191611003565b820191906000526020600020905b815481529060010190602001808311610fe657829003601f168201915b5050505050905090565b606061101882611512565b61102157600080fd5b601260008381526020019081526020016000208054600181600116156101000203166002900480601f0160208091040260200160405190810160405280929190818152602001828054600181600116156101000203166002900480156110c85780601f1061109d576101008083540402835291602001916110c8565b820191906000526020600020905b8154815290600101906020018083116110ab57829003601f168201915b50505050509050919050565b60006110de610db8565b6110e757600080fd5b6110f18484611762565b6110fa83611783565b600190509392505050565b6000808360000151600001518460000151602001518560200151600001518660200151602001518760400151600001518860400151602001518860405160200161115597969594939291906134a2565b60405160208183030381529060405280519060200120905080915050949350505050565b806015600085815260200190815260200160002060000181905550816015600085815260200190815260200160002060010160006101000a81548173ffffffffffffffffffffffffffffffffffffffff021916908373ffffffffffffffffffffffffffffffffffffffff1602179055506014600081548092919060010191905055507f078793128cefb19aac38a33f9e5df39f67716907f6d747e8065545699e0b2b8d818360405161122c929190613783565b60405180910390a1505050565b6000600560008473ffffffffffffffffffffffffffffffffffffffff1673ffffffffffffffffffffffffffffffffffffffff16815260200190815260200160002060008373ffffffffffffffffffffffffffffffffffffffff1673ffffffffffffffffffffffffffffffffffffffff16815260200190815260200160002060009054906101000a900460ff16905092915050565b6000601360009054906101000a900473ffffffffffffffffffffffffffffffffffffffff1673ffffffffffffffffffffffffffffffffffffffff166343cd76fc84846040518363ffffffff1660e01b815260040161132c92919061373d565b60206040518083038186803b15801561134457600080fd5b505afa158015611358573d6000803e3d6000fd5b505050506040513d601f19601f8201168201806040525061137c9190810190612ca5565b6113bb576040517f08c379a00000000000000000000000000000000000000000000000000000000081526004016113b29061363d565b60405180910390fd5b60008360000151600001518460000151602001518560200151600001518660200151602001518760400151600001518860400151602001518860405160200161140a97969594939291906134a2565b604051602081830303815290604052805190602001209050600073ffffffffffffffffffffffffffffffffffffffff166015600083815260200190815260200160002060010160009054906101000a900473ffffffffffffffffffffffffffffffffffffffff1673ffffffffffffffffffffffffffffffffffffffff16146114c7576040517f08c379a00000000000000000000000000000000000000000000000000000000081526004016114be9061371d565b60405180910390fd5b6114d2818787611179565b60606114dc610f6b565b90506114e98787836110d4565b92505050949350505050565b6114fd610db8565b61150657600080fd5b61150f816118a1565b50565b6000806002600084815260200190815260200160002060009054906101000a900473ffffffffffffffffffffffffffffffffffffffff169050600073ffffffffffffffffffffffffffffffffffffffff168173ffffffffffffffffffffffffffffffffffffffff161415915050919050565b60008061159083610b72565b90508073ffffffffffffffffffffffffffffffffffffffff168473ffffffffffffffffffffffffffffffffffffffff1614806115ff57508373ffffffffffffffffffffffffffffffffffffffff166115e78461062e565b73ffffffffffffffffffffffffffffffffffffffff16145b80611610575061160f8185611239565b5b91505092915050565b611624838383611999565b61162e8382611bc8565b6116388282611d66565b505050565b600081600001549050919050565b600061166c8473ffffffffffffffffffffffffffffffffffffffff16611e2d565b611679576001905061175a565b60008473ffffffffffffffffffffffffffffffffffffffff1663150b7a02338887876040518563ffffffff1660e01b81526004016116ba9493929190613559565b602060405180830381600087803b1580156116d457600080fd5b505af11580156116e8573d6000803e3d6000fd5b505050506040513d601f19601f8201168201806040525061170c9190810190612e19565b905063150b7a0260e01b7bffffffffffffffffffffffffffffffffffffffffffffffffffffffff1916817bffffffffffffffffffffffffffffffffffffffffffffffffffffffff1916149150505b949350505050565b61176c8282611e78565b6117768282611d66565b61177f8161202a565b5050565b61178c81611512565b6117cb576040517f08c379a00000000000000000000000000000000000000000000000000000000081526004016117c2906136dd565b60405180910390fd5b61187760118054600181600116156101000203166002900480601f0160208091040260200160405190810160405280929190818152602001828054600181600116156101000203166002900480156118645780601f1061183957610100808354040283529160200191611864565b820191906000526020600020905b81548152906001019060200180831161184757829003601f168201915b505050505061187283612076565b6121a3565b60126000838152602001908152602001600020908051906020019061189d929190612645565b5050565b600073ffffffffffffffffffffffffffffffffffffffff168173ffffffffffffffffffffffffffffffffffffffff1614156118db57600080fd5b8073ffffffffffffffffffffffffffffffffffffffff166000809054906101000a900473ffffffffffffffffffffffffffffffffffffffff1673ffffffffffffffffffffffffffffffffffffffff167f5c486528ec3e3f0ea91181cff8116f02bfa350e03b8b6f12e00765adbb5af85c60405160405180910390a3806000806101000a81548173ffffffffffffffffffffffffffffffffffffffff021916908373ffffffffffffffffffffffffffffffffffffffff16021790555050565b8273ffffffffffffffffffffffffffffffffffffffff166119b982610b72565b73ffffffffffffffffffffffffffffffffffffffff1614611a0f576040517f08c379a0000000000000000000000000000000000000000000000000000000008152600401611a069061369d565b60405180910390fd5b600073ffffffffffffffffffffffffffffffffffffffff168273ffffffffffffffffffffffffffffffffffffffff161415611a7f576040517f08c379a0000000000000000000000000000000000000000000000000000000008152600401611a76906136bd565b60405180910390fd5b611a88816121e7565b611acf600460008473ffffffffffffffffffffffffffffffffffffffff1673ffffffffffffffffffffffffffffffffffffffff1681526020019081526020016000206122a5565b611b16600460008573ffffffffffffffffffffffffffffffffffffffff1673ffffffffffffffffffffffffffffffffffffffff1681526020019081526020016000206122bb565b816002600083815260200190815260200160002060006101000a81548173ffffffffffffffffffffffffffffffffffffffff021916908373ffffffffffffffffffffffffffffffffffffffff160217905550808273ffffffffffffffffffffffffffffffffffffffff168473ffffffffffffffffffffffffffffffffffffffff167fddf252ad1be2c89b69c2b068fc378daa952ba7f163c4a11628f55a4df523b3ef60405160405180910390a4505050565b6000611c206001600660008673ffffffffffffffffffffffffffffffffffffffff1673ffffffffffffffffffffffffffffffffffffffff168152602001908152602001600020805490506122de90919063ffffffff16565b9050600060076000848152602001908152602001600020549050818114611d0d576000600660008673ffffffffffffffffffffffffffffffffffffffff1673ffffffffffffffffffffffffffffffffffffffff1681526020019081526020016000208381548110611c8d57fe5b9060005260206000200154905080600660008773ffffffffffffffffffffffffffffffffffffffff1673ffffffffffffffffffffffffffffffffffffffff1681526020019081526020016000208381548110611ce557fe5b9060005260206000200181905550816007600083815260200190815260200160002081905550505b600660008573ffffffffffffffffffffffffffffffffffffffff1673ffffffffffffffffffffffffffffffffffffffff168152602001908152602001600020805480919060019003611d5f91906126c5565b5050505050565b600660008373ffffffffffffffffffffffffffffffffffffffff1673ffffffffffffffffffffffffffffffffffffffff168152602001908152602001600020805490506007600083815260200190815260200160002081905550600660008373ffffffffffffffffffffffffffffffffffffffff1673ffffffffffffffffffffffffffffffffffffffff1681526020019081526020016000208190806001815401808255809150509060018203906000526020600020016000909192909190915055505050565b60008060007fc5d2460186f7233c927e7db2dcc703c0e500b653ca82273b7bfad8045d85a47060001b9050833f9150808214158015611e6f57506000801b8214155b92505050919050565b611e8181611512565b15611ec1576040517f08c379a0000000000000000000000000000000000000000000000000000000008152600401611eb89061365d565b60405180910390fd5b600073ffffffffffffffffffffffffffffffffffffffff168273ffffffffffffffffffffffffffffffffffffffff161415611f31576040517f08c379a0000000000000000000000000000000000000000000000000000000008152600401611f28906135fd565b60405180910390fd5b816002600083815260200190815260200160002060006101000a81548173ffffffffffffffffffffffffffffffffffffffff021916908373ffffffffffffffffffffffffffffffffffffffff160217905550611fca600460008473ffffffffffffffffffffffffffffffffffffffff1673ffffffffffffffffffffffffffffffffffffffff1681526020019081526020016000206122a5565b808273ffffffffffffffffffffffffffffffffffffffff16600073ffffffffffffffffffffffffffffffffffffffff167fddf252ad1be2c89b69c2b068fc378daa952ba7f163c4a11628f55a4df523b3ef60405160405180910390a45050565b6008805490506009600083815260200190815260200160002081905550600881908060018154018082558091505090600182039060005260206000200160009091929091909150555050565b606060008214156120be576040518060400160405280600181526020017f3000000000000000000000000000000000000000000000000000000000000000815250905061219e565b600082905060005b600082146120e8578080600101915050600a82816120e057fe5b0491506120c6565b6060816040519080825280601f01601f19166020018201604052801561211d5781602001600182028038833980820191505090505b50905060006001830390505b6000861461219657600a868161213b57fe5b0660300160f81b8282806001900393508151811061215557fe5b60200101907effffffffffffffffffffffffffffffffffffffffffffffffffffffffffffff1916908160001a905350600a868161218e57fe5b049550612129565b819450505050505b919050565b60606121df8383604051806020016040528060008152506040518060200160405280600081525060405180602001604052806000815250612328565b905092915050565b600073ffffffffffffffffffffffffffffffffffffffff166003600083815260200190815260200160002060009054906101000a900473ffffffffffffffffffffffffffffffffffffffff1673ffffffffffffffffffffffffffffffffffffffff16146122a25760006003600083815260200190815260200160002060006101000a81548173ffffffffffffffffffffffffffffffffffffffff021916908373ffffffffffffffffffffffffffffffffffffffff1602179055505b50565b6001816000016000828254019250508190555050565b6122d3600182600001546122de90919063ffffffff16565b816000018190555050565b600061232083836040518060400160405280601e81526020017f536166654d6174683a207375627472616374696f6e206f766572666c6f7700008152506125ea565b905092915050565b6060808690506060869050606086905060608690506060869050606081518351855187518951010101016040519080825280601f01601f1916602001820160405280156123845781602001600182028038833980820191505090505b509050606081905060008090506000809050600090505b8851811015612409578881815181106123b057fe5b602001015160f81c60f81b8383806001019450815181106123cd57fe5b60200101907effffffffffffffffffffffffffffffffffffffffffffffffffffffffffffff1916908160001a905350808060010191505061239b565b600090505b875181101561247c5787818151811061242357fe5b602001015160f81c60f81b83838060010194508151811061244057fe5b60200101907effffffffffffffffffffffffffffffffffffffffffffffffffffffffffffff1916908160001a905350808060010191505061240e565b600090505b86518110156124ef5786818151811061249657fe5b602001015160f81c60f81b8383806001019450815181106124b357fe5b60200101907effffffffffffffffffffffffffffffffffffffffffffffffffffffffffffff1916908160001a9053508080600101915050612481565b600090505b85518110156125625785818151811061250957fe5b602001015160f81c60f81b83838060010194508151811061252657fe5b60200101907effffffffffffffffffffffffffffffffffffffffffffffffffffffffffffff1916908160001a90535080806001019150506124f4565b600090505b84518110156125d55784818151811061257c57fe5b602001015160f81c60f81b83838060010194508151811061259957fe5b60200101907effffffffffffffffffffffffffffffffffffffffffffffffffffffffffffff1916908160001a9053508080600101915050612567565b82995050505050505050505095945050505050565b6000838311158290612632576040517f08c379a000000000000000000000000000000000000000000000000000000000815260040161262991906135db565b60405180910390fd5b5060008385039050809150509392505050565b828054600181600116156101000203166002900490600052602060002090601f016020900481019282601f1061268657805160ff19168380011785556126b4565b828001600101855582156126b4579182015b828111156126b3578251825591602001919060010190612698565b5b5090506126c191906126f1565b5090565b8154818355818111156126ec578183600052602060002091820191016126eb91906126f1565b5b505050565b61271391905b8082111561270f5760008160009055506001016126f7565b5090565b90565b60008135905061272581613a23565b92915050565b600082601f83011261273c57600080fd5b600261274f61274a826137d9565b6137ac565b9150818385602084028201111561276557600080fd5b60005b83811015612795578161277b8882612a1d565b845260208401935060208301925050600181019050612768565b5050505092915050565b600082601f8301126127b057600080fd5b60026127c36127be826137fb565b6137ac565b915081838560208402820111156127d957600080fd5b60005b8381101561280957816127ef8882612a1d565b8452602084019350602083019250506001810190506127dc565b5050505092915050565b60008135905061282281613a3a565b92915050565b60008151905061283781613a3a565b92915050565b60008135905061284c81613a51565b92915050565b60008135905061286181613a68565b92915050565b60008151905061287681613a68565b92915050565b600082601f83011261288d57600080fd5b81356128a061289b8261381d565b6137ac565b915080825260208301602083018583830111156128bc57600080fd5b6128c78382846139c6565b50505092915050565b600082601f8301126128e157600080fd5b81356128f46128ef82613849565b6137ac565b9150808252602083016020830185838301111561291057600080fd5b61291b8382846139c6565b50505092915050565b60006040828403121561293657600080fd5b61294060406137ac565b9050600061295084828501612a1d565b600083015250602061296484828501612a1d565b60208301525092915050565b60006080828403121561298257600080fd5b61298c60406137ac565b9050600061299c8482850161272b565b60008301525060406129b08482850161272b565b60208301525092915050565b600061010082840312156129cf57600080fd5b6129d960606137ac565b905060006129e984828501612924565b60008301525060406129fd84828501612970565b60208301525060c0612a1184828501612924565b60408301525092915050565b600081359050612a2c81613a7f565b92915050565b600060208284031215612a4457600080fd5b6000612a5284828501612716565b91505092915050565b60008060408385031215612a6e57600080fd5b6000612a7c85828601612716565b9250506020612a8d85828601612716565b9150509250929050565b600080600060608486031215612aac57600080fd5b6000612aba86828701612716565b9350506020612acb86828701612716565b9250506040612adc86828701612a1d565b9150509250925092565b60008060008060808587031215612afc57600080fd5b6000612b0a87828801612716565b9450506020612b1b87828801612716565b9350506040612b2c87828801612a1d565b925050606085013567ffffffffffffffff811115612b4957600080fd5b612b558782880161287c565b91505092959194509250565b60008060408385031215612b7457600080fd5b6000612b8285828601612716565b9250506020612b9385828601612813565b9150509250929050565b60008060408385031215612bb057600080fd5b6000612bbe85828601612716565b9250506020612bcf85828601612a1d565b9150509250929050565b600080600060608486031215612bee57600080fd5b6000612bfc86828701612716565b9350506020612c0d86828701612a1d565b925050604084013567ffffffffffffffff811115612c2a57600080fd5b612c36868287016128d0565b9150509250925092565b6000806000806101808587031215612c5757600080fd5b6000612c6587828801612716565b9450506020612c7687828801612a1d565b9350506040612c87878288016129bc565b925050610140612c998782880161279f565b91505092959194509250565b600060208284031215612cb757600080fd5b6000612cc584828501612828565b91505092915050565b600080600060608486031215612ce357600080fd5b6000612cf18682870161283d565b9350506020612d0286828701612716565b9250506040612d1386828701612a1d565b9150509250925092565b60008060408385031215612d3057600080fd5b6000612d3e8582860161283d565b925050602083013567ffffffffffffffff811115612d5b57600080fd5b612d67858286016128d0565b9150509250929050565b600080600060608486031215612d8657600080fd5b6000612d948682870161283d565b935050602084013567ffffffffffffffff811115612db157600080fd5b612dbd868287016128d0565b925050604084013567ffffffffffffffff811115612dda57600080fd5b612de68682870161287c565b9150509250925092565b600060208284031215612e0257600080fd5b6000612e1084828501612852565b91505092915050565b600060208284031215612e2b57600080fd5b6000612e3984828501612867565b91505092915050565b600060208284031215612e5457600080fd5b6000612e6284828501612a1d565b91505092915050565b6000612e77838361345e565b60208301905092915050565b6000612e8f838361347c565b60208301905092915050565b612ea481613990565b82525050565b612eb381613912565b82525050565b612ec281613894565b612ecc81846138da565b9250612ed78261387f565b8060005b83811015612f08578151612eef8782612e6b565b9650612efa836138c2565b925050600181019050612edb565b505050505050565b612f1981613894565b612f2381846138e5565b9250612f2e8261387f565b8060005b83811015612f5f578151612f468782612e83565b9650612f51836138c2565b925050600181019050612f32565b505050505050565b612f7081613889565b612f7a81846138cf565b9250612f8582613875565b8060005b83811015612fb6578151612f9d8782612e6b565b9650612fa8836138b5565b925050600181019050612f89565b505050505050565b612fc781613889565b612fd181846138e5565b9250612fdc82613875565b8060005b8381101561300d578151612ff48782612e83565b9650612fff836138b5565b925050600181019050612fe0565b505050505050565b61301e81613924565b82525050565b61302d81613930565b82525050565b600061303e8261389f565b61304881856138f0565b93506130588185602086016139d5565b61306181613a12565b840191505092915050565b6000613077826138aa565b6130818185613901565b93506130918185602086016139d5565b61309a81613a12565b840191505092915050565b60006130b2601483613901565b91507f41646472657373206973206e6f742076616c69640000000000000000000000006000830152602082019050919050565b60006130f2601b83613901565b91507f6f776e6572206d7573742062652076616c6964206164647265737300000000006000830152602082019050919050565b6000613132601483613901565b91507f4e6f7420612076616c696420736f6c7574696f6e0000000000000000000000006000830152602082019050919050565b6000613172601483613901565b91507f546f6b656e20616c7265616479206578697374730000000000000000000000006000830152602082019050919050565b60006131b2602c83613901565b91507f61646472657373206d757374206e6f7420626520746865206f776e6572206f6660008301527f2074686520746f6b656e496400000000000000000000000000000000000000006020830152604082019050919050565b6000613218602b83613901565b91507f46726f6d2061646472657373206d75737420626520746865206f776e6572206f60008301527f662074686520746f6b656e0000000000000000000000000000000000000000006020830152604082019050919050565b600061327e601783613901565b91507f546f2061646472657373206973206e6f742076616c69640000000000000000006000830152602082019050919050565b60006132be601483613901565b91507f546f6b656e20646f6573206e6f742065786973740000000000000000000000006000830152602082019050919050565b60006132fe605783613901565b91507f6d73672073656e646572206e6565647320746f20626520746865206f776e657260008301527f206f662074686520636f6e7472616374206f72206973417070726f766564466f60208301527f72416c6c2829206e6565647320746f20626520747275650000000000000000006040830152606082019050919050565b600061338a601783613901565b91507f536f6c7574696f6e20616c7265616479206578697374730000000000000000006000830152602082019050919050565b6040820160008201516133d3600085018261345e565b5060208201516133e6602085018261345e565b50505050565b6080820160008201516134026000850182612f67565b5060208201516134156040850182612f67565b50505050565b6101008201600082015161343260008501826133bd565b50602082015161344560408501826133ec565b50604082015161345860c08501826133bd565b50505050565b61346781613986565b82525050565b61347681613986565b82525050565b61348581613986565b82525050565b61349c61349782613986565b613a08565b82525050565b60006134ae828a61348b565b6020820191506134be828961348b565b6020820191506134ce8288612fbe565b6040820191506134de8287612fbe565b6040820191506134ee828661348b565b6020820191506134fe828561348b565b60208201915061350e8284612f10565b60408201915081905098975050505050505050565b60006020820190506135386000830184612eaa565b92915050565b60006020820190506135536000830184612e9b565b92915050565b600060808201905061356e6000830187612e9b565b61357b6020830186612eaa565b613588604083018561346d565b818103606083015261359a8184613033565b905095945050505050565b60006020820190506135ba6000830184613015565b92915050565b60006020820190506135d56000830184613024565b92915050565b600060208201905081810360008301526135f5818461306c565b905092915050565b60006020820190508181036000830152613616816130a5565b9050919050565b60006020820190508181036000830152613636816130e5565b9050919050565b6000602082019050818103600083015261365681613125565b9050919050565b6000602082019050818103600083015261367681613165565b9050919050565b60006020820190508181036000830152613696816131a5565b9050919050565b600060208201905081810360008301526136b68161320b565b9050919050565b600060208201905081810360008301526136d681613271565b9050919050565b600060208201905081810360008301526136f6816132b1565b9050919050565b60006020820190508181036000830152613716816132f1565b9050919050565b600060208201905081810360008301526137368161337d565b9050919050565b600061014082019050613753600083018561341b565b613761610100830184612eb9565b9392505050565b600060208201905061377d600083018461346d565b92915050565b6000604082019050613798600083018561346d565b6137a56020830184612eaa565b9392505050565b6000604051905081810181811067ffffffffffffffff821117156137cf57600080fd5b8060405250919050565b600067ffffffffffffffff8211156137f057600080fd5b602082029050919050565b600067ffffffffffffffff82111561381257600080fd5b602082029050919050565b600067ffffffffffffffff82111561383457600080fd5b601f19601f8301169050602081019050919050565b600067ffffffffffffffff82111561386057600080fd5b601f19601f8301169050602081019050919050565b6000819050919050565b6000819050919050565b600060029050919050565b600060029050919050565b600081519050919050565b600081519050919050565b6000602082019050919050565b6000602082019050919050565b600081905092915050565b600081905092915050565b600081905092915050565b600082825260208201905092915050565b600082825260208201905092915050565b600061391d82613966565b9050919050565b60008115159050919050565b6000819050919050565b60007fffffffff0000000000000000000000000000000000000000000000000000000082169050919050565b600073ffffffffffffffffffffffffffffffffffffffff82169050919050565b6000819050919050565b600061399b826139a2565b9050919050565b60006139ad826139b4565b9050919050565b60006139bf82613966565b9050919050565b82818337600083830152505050565b60005b838110156139f35780820151818401526020810190506139d8565b83811115613a02576000848401525b50505050565b6000819050919050565b6000601f19601f8301169050919050565b613a2c81613912565b8114613a3757600080fd5b50565b613a4381613924565b8114613a4e57600080fd5b50565b613a5a81613930565b8114613a6557600080fd5b50565b613a718161393a565b8114613a7c57600080fd5b50565b613a8881613986565b8114613a9357600080fd5b5056fea365627a7a723158201c4e75e94a34aa90e873956ba50de8813c55f2b6c2d8242cbe7f1f4c582c35476c6578706572696d656e74616cf564736f6c6343000510004068747470733a2f2f73332d75732d776573742d322e616d617a6f6e6177732e636f6d2f756461636974792d626c6f636b636861696e2f63617073746f6e652f",
  "source": "pragma solidity >=0.4.21 <0.6.0;\npragma experimental ABIEncoderV2;\n\n// TODO define a contract call to the zokrates generated solidity contract <Verifier> or <renamedVerifier>\n\nimport \"./ERC721Mintable.sol\";\nimport \"./SquareVerifier.sol\";\n\n// TODO define another contract named SolnSquareVerifier that inherits from your ERC721Mintable class\n\ncontract SolnSquareVerifier is StoneCapToken {\n  SquareVerifier verifier;\n\n    constructor(address owner) public {\n        verifier = SquareVerifier(owner);\n    }\n\n// TODO define a solutions struct that can hold an index & an address\n    struct Solution {\n        uint256 index;\n        address account;\n    }\n\n    uint256 numSolutions = 0;\n\n// TODO define an array of the above struct\n    mapping(bytes32 => Solution) solutions;\n\n\n// TODO define a mapping to store unique solutions submitted\n    mapping(uint256 => bytes32) private submittedSolutions;\n\n// TODO Create an event to emit when a solution is added\n    event SolutionAdded(uint256 index, address account);\n\n// TODO Create a function to add the solutions to the array and emit the event\n    function addSolution(bytes32 key, address solution_account, uint256 solution_index) public {\n        \n        solutions[key].index = solution_index;\n        solutions[key].account = solution_account;\n\n        numSolutions++;\n\n        emit SolutionAdded(solution_index, solution_account);\n    }\n\n    function getNumSolutions() public returns(uint256){\n        \n        return numSolutions;\n    }\n\n// TODO Create a function to mint new NFT only after the solution has been verified\n//  - make sure the solution is unique (has not been used before)\n//  - make sure you handle metadata as well as tokenSuplly\n\n    function mintToken(address account, uint256 index, SquareVerifier.Proof memory proof, uint[2] memory input) public returns(bool) {\n\n                require(verifier.verifyTx(proof, input), \"Not a valid solution\");\n\n                bytes32 key = keccak256(abi.encodePacked(proof.a.X, proof.a.Y, proof.b.X, proof.b.Y, proof.c.X, proof.c.Y, input));\n\n                require(solutions[key].account == address(0x0), \"Solution already exists\");\n\n                addSolution(key, account, index);\n\n                string memory baseTokenUri = super.getBaseTokenURI();\n\n                return super.mint(account, index, baseTokenUri);\n    }  \n\n    function getKey(address account, uint256 index, SquareVerifier.Proof memory proof, uint[2] memory input) public returns(bytes32) {\n        \n        bytes32 key = keccak256(abi.encodePacked(proof.a.X, proof.a.Y, proof.b.X, proof.b.Y, proof.c.X, proof.c.Y, input));\n        return key;\n    }\n}\n",
  "sourcePath": "/Users/toddskinner/BlockchainCourse/Blockchain-Capstone-master/eth-contracts/contracts/SolnSquareVerifier.sol",
  "compiler": {
    "name": "solc",
    "version": "0.5.16+commit.9c3226ce.Emscripten.clang"
  },
  "schemaVersion": "3.4.4",
  "updatedAt": "2022-01-27T21:34:48.243Z",
  "networkType": "ethereum",
  "devdoc": {
    "methods": {
      "isApprovedForAll(address,address)": {
        "details": "Tells whether an operator is approved by a given owner",
        "params": {
          "operator": "operator address which you want to query the approval of",
          "owner": "owner address which you want to query the approval of"
        },
        "return": "bool whether the given operator is approved by the given owner"
      },
      "setApprovalForAll(address,bool)": {
        "details": "Sets or unsets the approval of a given operator An operator is allowed to transfer all tokens of the sender on their behalf",
        "params": {
          "approved": "representing the status of the approval to be set",
          "to": "operator address to set the approval"
        }
      },
      "supportsInterface(bytes4)": {
        "details": "implement supportsInterface(bytes4) using a lookup table"
      },
      "tokenByIndex(uint256)": {
        "details": "Gets the token ID at a given index of all the tokens in this contract Reverts if the index is greater or equal to the total number of tokens",
        "params": {
          "index": "uint256 representing the index to be accessed of the tokens list"
        },
        "return": "uint256 token ID at the given index of the tokens list"
      },
      "tokenOfOwnerByIndex(address,uint256)": {
        "details": "Gets the token ID at a given index of the tokens list of the requested owner",
        "params": {
          "index": "uint256 representing the index to be accessed of the requested tokens list",
          "owner": "address owning the tokens list to be accessed"
        },
        "return": "uint256 token ID at the given index of the tokens list owned by the requested address"
      },
      "totalSupply()": {
        "details": "Gets the total amount of tokens stored by the contract",
        "return": "uint256 representing the total amount of tokens"
      }
    }
  },
  "userdoc": {
    "methods": {
      "isOwner()": {
        "notice": "Check if the calling address is the owner of the contract"
      }
    }
  }
}